:020000040800F2
:10000000C0160020E50E00087503000877030008FD
:100010007B0300087F030008830300080000000042
:10002000000000000000000000000000870300083E
:1000300089030008000000008B0300088D030008FE
:10004000FF0E0008FF0E0008FF0E0008FF0E00085C
:10005000FF0E0008FF0E0008FF0E0008FF0E00084C
:10006000FF0E0008FF0E0008FF0E0008FF0E00083C
:10007000FF0E0008FF0E0008FF0E0008FF0E00082C
:10008000FF0E0008FF0E0008FF0E0008FF0E00081C
:10009000FF0E0008FF0E0008FF0E0008FF0E00080C
:1000A000FF0E0008FF0E0008FF0E0008FF0E0008FC
:1000B000FF0E0008FF0E0008FF0E0008FF0E0008EC
:1000C000FF0E0008FF0E0008FF0E0008FF0E0008DC
:1000D000FF0E0008590E0008FF0E0008FF0E000872
:1000E000FF0E0008FF0E0008FF0E0008FF0E0008BC
:1000F000FF0E0008FF0E0008FF0E0008FF0E0008AC
:10010000FF0E0008FF0E0008FF0E0008FF0E00089B
:10011000FF0E0008FF0E0008FF0E0008FF0E00088B
:10012000FF0E0008FF0E0008FF0E0008FF0E00087B
:1001300000F002F800F05AF80AA090E8000C82449F
:100140008344AAF10107DA4501D100F04FF8AFF27C
:10015000090EBAE80F0013F0010F18BFFB1A43F0A5
:1001600001031847DCE30100FCE301000A444FF0FF
:10017000000C10F8013B13F0070408BF10F8014B06
:100180001D1108BF10F8015B641E05D010F8016B4B
:10019000641E01F8016BF9D113F0080F1EBF10F8AF
:1001A000014BAD1C0C1B09D16D1E58BF01F801CBD2
:1001B000FAD505E014F8016B01F8016B6D1EF9D555
:1001C0009142D6D37047000000230024002500266A
:1001D000103A28BF78C1FBD8520728BF30C148BFAA
:1001E0000B6070471FB51FBD10B510BD01F091FC2D
:1001F0001146FFF7F7FF00F009F801F0AFFC03B478
:10020000FFF7F2FF03BC00F007FE000008B500BFD7
:1002100000F092FD00F0FAFD4FF4E13000F00AFE2C
:1002200000F00CFA4FF6FF7000F0FCFA4FF6FF708A
:1002300029490860002329A20A21082000F0A3FC14
:1002400000202723F0221E21009000F04AFB40F2FC
:10025000CF132AA228210A2000F095FC40F2CF13E8
:1002600029A23C210A2000F08EFC40F2CF132BA2E1
:1002700050210A2000F087FC00206D23F022642129
:10028000009000F02EFB4FF4784329A276210A203B
:1002900000F079FC00209523F0228C21009000F0E2
:1002A00020FB002327A2AA210A2000F06CFC0020DA
:1002B000D123F022C821009000F013FB1F2327A2B6
:1002C000DC210A2000F05FFC1F2327A2DC218C2008
:1002D00000F059FC00BFFEE7740300202D2D2D2DEA
:1002E0002D2D2D2D2D424C4432352D3234474E2D9F
:1002F0002D2D2D2D2D2D2D2D2D00000048414C4C48
:1003000020202020203A20004D41582053504545C0
:10031000443A202020202052504D00004D415820CA
:1003200057415454203A20202020205720200000FC
:100330005445535409202020203A202020202021F9
:100340002121000050726573732053573220746F5F
:10035000205374617274205465737400564F4C546A
:100360003A20202020205600435552523A20202087
:1003700020204100704700BFFEE700BFFEE700BF3E
:10038000FEE700BFFEE77047704770477047000008
:100390000CB50020019000906C48006840F480305B
:1003A0006A49086000BF6948006800F400300090A6
:1003B0000198401C0190009818B90198B0F5A06F01
:1003C000F1D16248006800F4003010B101200090C3
:1003D00001E0002000900098012843D15C480068AB
:1003E00040F010005A4908600846006820F00300F9
:1003F00008600846006840F0020008605348406802
:10040000524948600846406848600846406840F4E1
:10041000806048600846406820F47C1048600846C8
:10042000406840F4E81048600846006840F080707A
:10043000086000BF4548006800F000700028F9D04F
:100440004248406820F00300404948600846406840
:1004500040F00200486000BF3C48406800F00C00DB
:100460000828F9D10CBD10B5FFF792FF10BD10B5EB
:100470003648006840F0010034490860084640688A
:10048000344908403149486008460068324908400C
:100490002E4908600846006820F48020086008465D
:1004A000406820F4FE0048604FF41F008860FFF7AA
:1004B000DAFF4FF000602949086010BD10B5002137
:1004C00000200022214B5B6803F00C0121B10429BC
:1004D00006D0082928D107E0214B224C236027E0D1
:1004E0001F4B204C236023E0184B5B6803F4701013
:1004F000164B5B6803F48032022303EB904022B971
:10050000194B4343174C23600DE0104B5B6803F419
:10051000003323B1144B4343124C236003E0104BD0
:100520004343104C236003E00D4B0E4C236000BF8F
:1005300000BF064B5B68C3F303130C4CE15C094B33
:100540001B68CB40074C236010BD00000010024028
:10055000002002400000FFF8FFFFF6FE08ED00E07B
:1005600000127A000000002000093D000400002075
:1005700070B504461021FB4800F051FE002517E03D
:100580000121F84800F04BFE04F0800020B1022168
:10059000F44800F042FE03E00221F24800F03FFE82
:1005A0000121F04800F039FE6006040E681CC5B257
:1005B000082DE5DB1021EB4800F02FFE70BD10B5D3
:1005C00004460821E74800F028FE2046FFF7D0FF48
:1005D00010BD10B504460821E24800F01EFEC4F329
:1005E0000720FFF7C5FFE0B2FFF7C2FF10BD10B54F
:1005F00004460821DB4800F012FE2046FFF7B8FF52
:1006000010BD2DE9F04107460C4615461E462A202E
:10061000FFF7EDFF3846FFF7DCFF2846FFF7D9FF6D
:100620002B20FFF7E4FF2046FFF7D3FF3046FFF70C
:10063000D0FF2C20FFF7DBFFBDE8F08108B50121DA
:10064000152000F0F9FF0121C74800F00AFE5F20E5
:10065000ADF8000010208DF8030003208DF8020093
:100660006946C04800F02CFD5F21BE4800F0D5FD72
:100670004FF40070ADF8000010208DF80300032047
:100680008DF802006946B94800F01AFD4FF4007178
:10069000B64800F0C4FD0421B24800F0C0FD1420AB
:1006A00000F087FB0421AF4800F0B7FD142000F0F4
:1006B00080FB4021AB4800F0B0FD3620FFF797FFEC
:1006C0000020FFF77CFF3A20FFF791FF0520FFF79E
:1006D00076FFB220FFF78BFF0C20FFF770FF0C2096
:1006E000FFF76DFF0020FFF76AFF3320FFF767FF7A
:1006F0003320FFF764FFB720FFF779FF3520FFF7BE
:100700005EFFBB20FFF773FF3720FFF758FFC020C5
:10071000FFF76DFF2C20FFF752FFC220FFF767FFA6
:100720000120FFF74CFFC320FFF761FF1220FFF706
:1007300046FFC420FFF75BFF2020FFF740FFC620E5
:10074000FFF755FF0F20FFF73AFFD020FFF74FFFCD
:10075000A420FFF734FFA120FFF731FFE020FFF7CF
:1007600046FFD020FFF72BFF0420FFF728FF0D20C6
:10077000FFF725FF1120FFF722FF1320FFF71FFFD0
:100780002B20FFF71CFF3F20FFF719FF5420FFF736
:1007900016FF4C20FFF713FF1820FFF710FF0D2066
:1007A000FFF70DFF0B20FFF70AFF1F20FFF707FFE2
:1007B0002320FFF704FFE120FFF719FFD020FFF708
:1007C000FEFE0420FFF7FBFE0C20FFF7F8FE1120D1
:1007D000FFF7F5FE1320FFF7F2FE2C20FFF7EFFEE8
:1007E0003F20FFF7ECFE4420FFF7E9FE5120FFF722
:1007F000E6FE2F20FFF7E3FE1F20FFF7E0FE1F209D
:10080000FFF7DDFE2020FFF7DAFE2320FFF7D7FEFB
:100810002120FFF7ECFE1120FFF7E9FE2920FFF76A
:10082000E6FE08BD70B50646EF231A4600210846CD
:10083000FFF7E7FE002408E0002503E03046FFF75D
:10084000C8FE6D1CF02DF9D3641CF02CF4D370BDE0
:100850002DE9F05F81468A4693461C46102C00D154
:10086000434D202C00D1434D0AEB0400431E09EBFD
:100870000400421E51464846FFF7C3FE04FB04F045
:10088000C11700EB5171C1F3C7080BFB08550027D6
:1008900015E000260EE028780121B140084018B18B
:1008A0000A98FFF796FE03E033480068FFF791FED1
:1008B000701CC6B2082EEEDB6D1C781CC7B2474513
:1008C000E7DBBDE8F09F70B504460D4616462B46A3
:1008D000224629462046FFF794FE3046FFF779FE70
:1008E00070BD2DE9F04704460D4616461F46DDF85B
:1008F00020A03B46324629462046FFF782FEA84606
:100900000AE0A14604E05046FFF763FE09F1010941
:10091000B145F8D908F10108B845F2D9BDE8F0872A
:10092000F8B504460D461646691E601E6B1C621C17
:100930000096FFF7D6FFF8BD2DE9FF4F85B0814641
:100940008A460020039083460798A0EB0904089884
:10095000A0EB0A06CDF80890CDF804A0002C0DDD20
:10096000012711E0000801400002300000100140A2
:100970009402002014000020740300200CB900270A
:1009800002E04FF0FF376442002E02DD4FF0010815
:1009900006E016B94FF0000802E04FF0FF3866425B
:1009A000B44201DD254600E03546002004901BE0FE
:1009B000129ADDE90110FFF786FF039820440390A7
:1009C000B3440398A84205DD0398401B03900298A6
:1009D00038440290AB4504DDABEB050B0198404475
:1009E00001900498401C0490691C04988842DFD34D
:1009F00009B0BDE8F08F2DE9F84305460E461746CD
:100A00009846089C33463A46314628460094FFF7FC
:100A100093FF43462A46314628460094FFF78CFF51
:100A200043463A46414628460094FFF785FF434631
:100A30003A46314638460094FFF77EFFBDE8F8831A
:100A40002DE9F04706460F46904699460025444654
:100A500031E0791B301B4A46FFF735FF791B30190F
:100A60004A46FFF730FF3919701B4A46FFF72BFF44
:100A7000391B701B4A46FFF726FF791930194A4681
:100A8000FFF721FF391B70194A46FFF71CFF391980
:100A900070194A46FFF717FF7919301B4A46FFF7CE
:100AA00012FF6D1C05FB05F004FB040108FB08F0B8
:100AB000814200DD641EA542CBDDBDE8F0872DE953
:100AC000F84F05460F4616469A46DDF828B00095C1
:100AD000E02D01D8E02F01D9BDE8F88FA6F1200064
:100AE000C6B207F10F03EA1D39462846FFF789FD14
:100AF000BAF1000F25D1002420E004EB06108A494A
:100B000011F800904FF0000811E009F0010018B151
:100B10005846FFF75EFD03E084480068FFF759FD83
:100B20004FEA69096D1C08F1010000F0FF08B8F1F7
:100B3000080FEADB009D7F1C601CC4B2102CDCDBBC
:100B40001FE000241BE004EB0610774911F8009029
:100B50004FF000080EE009F0010028B1391905EB4B
:100B600008005A46FFF7AFFE4FEA690908F1010095
:100B700000F0FF08B8F1080FEDDB601CC4B2102CC8
:100B8000E1DB00BFA8E7F8B505460E4614461F4650
:100B900015E0E02D01D900251036E02E06D9002001
:100BA000054606464FF47840FFF73CFE0097227852
:100BB000002331462846FFF782FF0835641C207861
:100BC0000028E6D1F8BD10B50246012000E05043F0
:100BD0000B1EA1F10104E1B2F9D110BD2DE9F84FCE
:100BE00006468A4690461D46DDF828904FF0000BD9
:100BF00000242FE0281B401EC1B20A20FFF7E3FFAC
:100C0000B8FBF0F00A21B0FBF1F201FB1207BBF1D7
:100C1000000F10D1681EA0420DDD57B9082101FB5D
:100C20000460002320225146CDF80090FFF747FFD3
:100C30000EE04FF0010B07F13001CAB2082101FBB1
:100C4000046000235146CDF80090FFF738FF00BF45
:100C5000601CC4B2AC42CDDBBDE8F88F2DE9FC5F6F
:100C600006468A4617461C46DDF830800020019073
:100C70002F49384600F0A0FF009000F07DFF83462A
:100C800000252CE0601B401EC1B20A20FFF79BFF2D
:100C9000BBFBF0F00A21B0FBF1F201FB1209A01E30
:100CA000A8420ED1A11E082202FB016000232E22C1
:100CB0005146CDF80080FFF702FF681CC5B2601CEA
:100CC000C4B209F13001CAB2082101FB056000235A
:100CD0005146CDF80080FFF7F2FE681CC5B2A54270
:100CE000D0DBBDE8FC9F2DE9F04105460E461746D6
:100CF000984643463A4631462846FFF782FC002490
:100D00000CE0012101EB44010A4A505CFFF757FC5B
:100D1000084911F81400FFF752FC641CB4F5614F48
:100D2000EFDBBDE8F0810000501D000874030020D7
:100D30000000C8424023000810B56FF0040000F026
:100D400040F92E4800682E49B0FBF1F02D4908709B
:100D50000846007800EB4001C1EBC0104FF6FF7170
:100D600001EAC0002849088010BD0146254A1278D2
:100D70004A434FF0E0235A6100229A611A461269F1
:100D800042F001021A6100BF4FF0E022106900F04A
:100D900001021AB100F48032002AF5D04FF0E022AF
:100DA000126922F001024FF0E0231A6100229A61D9
:100DB00070470146144A12884A434FF0E0235A61B3
:100DC00000229A611A46126942F001021A6100BFBC
:100DD0004FF0E022106900F001021AB100F48032F5
:100DE000002AF5D04FF0E022126922F001024FF004
:100DF000E0231A6100229A61704700000000002081
:100E000000127A00780300207A03002010B54FF416
:100E1000A06000F087F810BD00BF704700BF2D4AEA
:100E2000128802F04002002AF9D0C2B2294B1B1DE1
:100E30001A80704738B504460121042000F0FCFBFD
:100E40004FF48060ADF8000000208DF80300694683
:100E5000214800F035F938BD10B540F225511D4844
:100E600000F00EFE10B31B4800F08AFDC4B21B4810
:100E7000008800F40040C8B91848008800F4804099
:100E800060B10A2C03D000201449088020E01348E8
:100E9000008840F400401149088019E00D2C06D16B
:100EA0000E48008840F480400C49088010E00B4850
:100EB0000088C0F30D000A490C5408480088401C03
:100EC0000649088008460088C72801DD0020088000
:100ED00010BD0000003801400008014080030020E0
:100EE000980300200948804709480047FEE7FEE7CD
:100EF000FEE7FEE7FEE7FEE7FEE7FEE7FEE7FEE7CA
:100F000004480549054A064B704700006F04000875
:100F100031010008C0040020C0160020C0060020D7
:100F2000C006002031490143314A1160704770B555
:100F3000002100230F22C47804B32D4C246804F44C
:100F4000E064C4F5E064210AC1F10403CA404478B6
:100F500004FA03F18478144021430901254C0678F2
:100F6000A155047804F01F050124AC4005786D11EB
:100F7000AD0005F1E025C5F8004109E0047804F072
:100F80001F050124AC401C4D0678761145F826401B
:100F900070BD1A4A0A400243154B1B1F1A60704766
:100FA00039B1134A121D12680243114B1B1D1A60FE
:100FB00006E00F4A121D126882430D4B1B1D1A607A
:100FC0007047042808D14FF0E021096941F004017D
:100FD0004FF0E022116107E04FF0E021096921F0B4
:100FE00004014FF0E0221161704700000000FA0593
:100FF0000CED00E000E400E080E100E080FFFF1F76
:1010000010B50446CC48844208D10121042000F0E8
:101010002DFB0021042000F029FB46E0C748844254
:1010200008D10121082000F021FB0021082000F058
:101030001DFB3AE0C248844208D10121102000F093
:1010400015FB0021102000F011FB2EE0BD4884426A
:1010500008D10121202000F009FB0021202000F010
:1010600005FB22E0B848844208D10121402000F06D
:10107000FDFA0021402000F0F9FA16E0B34884425E
:1010800008D10121802000F0F1FA0021802000F039
:10109000EDFA0AE0AE48844207D10121801500F044
:1010A000E5FA0021A01500F0E1FA10BD10B501210C
:1010B000084600F0DBFA0021012000F0D7FA10BD4D
:1010C0002DE9F041024600250026002000230024DF
:1010D000002791F803C00CF00F0591F803C00CF045
:1010E000100CBCF1000F03D091F802C04CEA0505CA
:1010F00091F800C0BCF1000F31D0146800202BE043
:101100004FF0010C0CFA00F3B1F800C00CEA030632
:101110009E4220D183004FF00F0C0CFA03F7BC4322
:1011200005FA03FC4CEA040491F803C0BCF1280F53
:1011300006D14FF0010C0CFA00FCC2F814C00AE012
:1011400091F803C0BCF1480F05D14FF0010C0CFA27
:1011500000FCC2F810C0401C0828D1D31460B1F8BC
:1011600000C0BCF1FF0F34DD546800202EE000F118
:10117000080C4FF0010808FA0CF3B1F800C00CEAB3
:1011800003069E4221D183004FF00F0C0CFA03F7A7
:10119000BC4305FA03FC4CEA040491F803C0BCF11B
:1011A000280F05D100F1080C08FA0CF8C2F81480D9
:1011B00091F803C0BCF1480F07D100F1080C4FF0C3
:1011C000010808FA0CF8C2F81080401C0828CED399
:1011D0005460BDE8F0814FF6FF71018002218170FB
:1011E0000421C17070470246002093680B400BB188
:1011F000012000E0002070470146886880B27047F7
:1012000002460020D3680B400BB1012000E0002013
:1012100070470146C86880B27047016170474161FC
:1012200070470AB1016100E041617047C1607047D9
:101230004FF480320A4382618161826182698269EE
:10124000704702460020434B18684FF680731840E1
:1012500040EA021008433F4B186070473E49C8619E
:101260007047F0B50A46002300240021002500F055
:101270000046B6F1004F02D1364EF16901E0354E1D
:101280007168C0F3034583B200F44016B6F5401F01
:1012900008D121F070612F4E766826F070662D4FD0
:1012A0007E6012E000F48016B6F5801F06D103269A
:1012B00006FA05F4A14341F0706106E0460D3601DF
:1012C00003FA06F6B14341F0706122B1460D3601D2
:1012D00003FA06F6314300F00046B6F1004F02D1A2
:1012E0001C4EF16101E01B4E7160F0BD30B5002273
:1012F0008B071C0F0F2303FA04F2164B08338C10D4
:1013000053F824309343134C08348D1044F825309F
:1013100023468C1053F824308C07240F00FA04F471
:1013200023430C4C08348D1044F8253030BD0A4955
:10133000DC3108607047000000080140000C0140EB
:10134000001001400014014000180140001C014041
:10135000002001400000014000002042DF480068FA
:1013600040F00100DD49086008464068DC4908405B
:10137000DA49486008460068DA490840D7490860F9
:101380000846006820F4802008600846406820F481
:10139000FE0048604FF41F0088607047CF4909681D
:1013A00021F48031CD4A11601146096821F4802171
:1013B0001160B0F5803F03D0B0F5802F0ED106E06C
:1013C000C649096841F48031C44A116007E0C34945
:1013D000096841F4A021C14A116000E000BF00BFCC
:1013E000704710B501460022002300204A11012A4F
:1013F00002D1BA4C236806E0022A02D1B74C236A14
:1014000001E0B64C636A01F01F02012494401C40C5
:101410000CB1012000E0002010BD38B50020009084
:101420000024002500BF3120FFF7DBFF05460098B0
:10143000401C00900098B0F5A06F01D0002DF2D0B4
:101440003120FFF7CEFF08B1012400E00024204640
:1014500038BD01460020A14A106820F0F80040EA9B
:10146000C10010607047A049086070470246002024
:101470009A4B586820F47C1042EA01031843974BBA
:101480005860704798490866704701460020934AA3
:10149000506820F003000843506070478F48406850
:1014A00000F00C007047014600208C4A506820F084
:1014B000F00008435060704701460020874A50689A
:1014C00020F4E06008435060704701460020834AE2
:1014D000506820F4605040EAC1005060704729B164
:1014E0007E4A527A02437D4B5A7204E07B4A527A1A
:1014F00082437A4B5A7270477B49D83108607047F3
:1015000001460020754A506820F44040084350606E
:1015100070470021714A20321170704A82F8201001
:10152000012802D004280AD104E001216B4A2032AC
:10153000117005E00521694A2032117000E000BFFA
:1015400000BF70476949086070476449096A0143F0
:10155000624A11627047654944390860704730B586
:1015600000210022002400235C4D6D6805F00C0171
:1015700021B1042905D0082923D105E05C4D05607F
:1015800022E05B4D05601FE0544D6D6805F470125C
:10159000524D6D6805F48034022505EB92421CB96A
:1015A000544D554305600BE04C4D6D6805F4003516
:1015B0001DB1504D5543056002E04D4D554305604A
:1015C00002E04B4D056000BF00BF444D6D6805F063
:1015D000F0010909484D6B5C0568DD4045603F4DF1
:1015E0006D6805F4E061090A434D6B5C4568DD40B8
:1015F00085603A4D6D6805F46051C90A3E4D6B5CDB
:101600004568DD40C560354D6D6805F44041890B86
:101610003A4D6B5CC568B5FBF3F5056130BD29B18A
:101620002E4A526902432D4B5A6104E02B4A5269FB
:1016300082432A4B5A61704729B1284A9269024372
:10164000264B9A6104E0254A92698243234B9A61B2
:10165000704729B1214AD2690243204BDA6104E084
:101660001E4AD26982431D4BDA61704729B11B4A79
:10167000D2680243194BDA6004E0184AD268824308
:10168000164BDA60704729B1144A12690243134BB2
:101690001A6104E0114A12698243104B1A617047C3
:1016A00012494039086070470F49C86470470B49B8
:1016B000C87170470948406A40F080700749486225
:1016C000704701460020054A92680A400AB101208D
:1016D00000E0002070470149887270470010024006
:1016E0000000FFF8FFFFF6FE000042428004424285
:1016F00000127A0000093D008203002092030020BE
:1017000010B50446FB48844209D101218803FFF744
:10171000ADFF00214FF48040FFF7A8FF32E0F6480C
:10172000844209D101214804FFF7ADFF00214FF4A5
:101730000030FFF7A8FF25E0F048844209D10121DD
:101740008804FFF7A0FF00214FF48020FFF79BFFE4
:1017500018E0EB48844209D10121C804FFF793FF48
:1017600000214FF40020FFF78EFF0BE0E548844294
:1017700008D101210805FFF786FF00214FF48010F2
:10178000FFF781FF10BD2DE9F04786B005460E46F4
:101790000024A24600BFA1460027B08900B100BFC7
:1017A0002F462C8A4CF6FF700440F08804432C82AC
:1017B000AC894EF6F3100440B08831890843718932
:1017C00008430443AC81AC8A4FF6FF400440B08923
:1017D0000443AC8201A8FFF7C2FEC648874202D18B
:1017E000DDF810A001E0DDF80CA0A88900F40040AD
:1017F00040B10AEBCA0000EB0A1031684900B0FBA7
:10180000F1F807E00AEBCA0000EB0A103168890022
:10181000B0FBF1F86420B8FBF0F00401200964216A
:1018200001FB1089A88900F4004040B1322000EB90
:10183000C900B0FBF1F000F00700044308E03220DB
:1018400000EB09106421B0FBF1F000F00F0004433D
:101850002C8106B0BDE8F0874FF4165101600021DD
:101860008180C18001810C214181002181817047EB
:1018700010B502460020108A4FF2FF0318400B8873
:101880004C8823438C882343CC88234318431082FD
:1018900010BD0021018041808180C180704721B14D
:1018A000828942F40052828104E082894DF6FF73FE
:1018B0001A4082817047F0B50346002400260025B7
:1018C000002040F66A17B94200D100BF1846C1F3A4
:1018D000421401F01F06012707FA06F5012C01D179
:1018E0000C3004E0022C01D1103000E014301AB1A9
:1018F00007682F43076002E00768AF430760F0BD49
:101900001AB1838A0B43838202E0838A8B438382EA
:101910007047028A4FF6F0731A400282028A0A4325
:101920000282704782894FF2FF731A408281828956
:101930000A438281704721B1828942F0020282818A
:1019400004E082894FF6FD731A4082817047028A53
:101950004FF6DF731A400282028A0A4302827047FE
:1019600021B1028A42F48042028204E0028A4BF6EC
:10197000FF731A4002827047C1F3080282807047E9
:1019800001468888C0F308007047818941F0010151
:1019900081817047028BD2B20283028B42EA01221C
:1019A00002837047028B02F47F420283028B0A4358
:1019B0000283704721B1828A42F02002828204E0D1
:1019C000828A4FF6DF731A408282704721B1828A81
:1019D00042F01002828204E0828A4FF6EF731A40CE
:1019E0008282704721B1828A42F00802828204E03A
:1019F000828A4FF6F7731A408282704721B182893A
:101A000042F40042828103E08289C2F30E028281A5
:101A1000704721B1828A42F40062828204E0828AA5
:101A20004FF2FF731A4082827047828A4FF6FB732F
:101A30001A408282828A0A438282704721B1828A56
:101A400042F00202828204E0828A4FF6FD731A405D
:101A50008282704702460020B1F5007F00D100BFAE
:101A600013880B400BB1012000E00020704701F407
:101A70000072B2F5007F00D100BFCA4302807047F8
:101A800070B50246002400230025002040F66A16A7
:101A9000B14200D100BFC1F3421501F01F0301267E
:101AA00006FA03F3012D02D19689334006E0022D98
:101AB00002D1168A334001E0968A33400C12012687
:101AC00006FA04F41688344013B10CB1012000E08A
:101AD000002070BD10B50022002340F66A14A14218
:101AE00000D100BF0A1201249440A3B2DC43048059
:101AF00010BD000000380140004400400048004094
:101B0000004C0040005000407047704770477047DD
:101B10007047754600F02CF8AE46050069465346FE
:101B200020F00700854618B020B5FFF7E9F9BDE8B9
:101B300020404FF000064FF000074FF000084FF034
:101B4000000B21F00701AC46ACE8C009ACE8C009C5
:101B5000ACE8C009ACE8C0098D46704710B5044632
:101B6000AFF300802046BDE81040FEF748BB000000
:101B70000048704760040020C10DD1F19E0206DBD1
:101B80004FEA002343F0004323FA02F0704700427B
:101B900007D54FEA4001B1F1FE4F02D24FF00000ED
:101BA000704710B500F089F84992248000207047F2
:101BB0006FEA2000704700004FF47F0C1CEAD0123F
:101BC0001EBF1CEAD11392EA0C0F93EA0C0F00F02F
:101BD000478090EA010F48BF42F480724FF0004CFA
:101BE0004CEA00204CEA012102EB0302A0FB0113A6
:101BF000A2F50002002918BF43F001035B0028BFD3
:101C00004FEA330342EB22425FEA132C4CEBC25003
:101C10002EBFBCEB436FB2F57C0F70474FEA036CED
:101C2000BCF1004F08BF20F00100B2F57C0F38BFB7
:101C300070470BD582F0FF0212F5803FC8BF704796
:101C400000F1C040D8BF00F00040704700F5000C24
:101C50005FEA4C0C48BF7047B0F1C04000F073B869
:101C600090EA010F0CEAD11348BF42F4807262453A
:101C700038BF634504D280EA010000F0004070479D
:101C800010B500F01AF800BF8900013E00F007B857
:101C900000F009B85FEA410C5FEA1C6C08D080EAEA
:101CA000010000F050B85FEA400C5FEA1C6CF6D10E
:101CB0004FF00040A0F5800070470EF1020E2EF0AC
:101CC000030E5EF8044B244204D44FEA4102B2F101
:101CD0007F4F11D84FEA4003B3F17F4F0CD80ED19C
:101CE0004FEAD07CB2F17F4F0CEB4C0C0CF1020CA4
:101CF00008BF4CEBD17C04E04FF0080C01E04FEA48
:101D0000D17C0CEB4C0324FA03F404F00704B4F187
:101D1000040C06D20EEB840CBDE810404CF0010C14
:101D20006047DFE80CF0070802024FF00040A0F522
:101D3000800010BD0846420018BFD2F1807288BFF3
:101D400000F0004010BDFF2141EAD050C0057047AF
:101D50000000000000000000000000000000000083
:101D6000000000080808080808080000181800000B
:101D700000486C2412000000000000000000000079
:101D80000000002424247F1212127F12121200007D
:101D90000000081C2A2A0A0C1828282A2A1C0808CD
:101DA00000000022251515152A585454542200000D
:101DB0000000000C1212120A76252911916E000003
:101DC0000006060403000000000000000000000000
:101DD00000402010100808080808081010204000D3
:101DE0000002040808101010101010080804020067
:101DF0000000000008086B1C1C6B080800000000B5
:101E000000000000080808087F0808080800000013
:101E100000000000000000000000000006060403AF
:101E20000000000000000000FE00000000000000B4
:101E30000000000000000000000000000606000096
:101E40000000804040202010100808040402020016
:101E5000000000182442424242424242241800003C
:101E6000000000080E08080808080808083E0000DE
:101E70000000003C4242422020100804427E000044
:101E80000000003C4242201820404042221C00003A
:101E9000000000203028242422227E202078000008
:101EA0000000007E0202021A26404042221C00006E
:101EB000000000382402021A264242422418000080
:101EC0000000007E22221010080808080808000000
:101ED0000000003C4242422418244242423C00009E
:101EE000000000182442424264584040241C000074
:101EF0000000000000001818000000001818000082
:101F000000000000000000080000000000080804B5
:101F100000000040201008040204081020400000C7
:101F20000000000000007F0000007F0000000000B3
:101F300000000002040810204020100804020000E5
:101F40000000003C424246402010100018180000DB
:101F50000000001C225A555555552D42221C0000E8
:101F60000000000808181414243C224242E7000034
:101F70000000001F2222221E22424242221F000095
:101F80000000007C4242010101010142221C0000CC
:101F90000000001F2242424242424242221F0000F1
:101FA0000000003F4212121E12120242423F000085
:101FB0000000003F4212121E12120202020700002D
:101FC0000000003C2222010101712122221C00009C
:101FD000000000E7424242427E42424242E70000A5
:101FE0000000003E0808080808080808083E00002D
:101FF0000000007C10101010101010101010110FA5
:102000000000007722120A0E0A1212222277000024
:10201000000000070202020202020202427F0000E8
:1020200000000077363636362A2A2A2A2A6B000024
:10203000000000E346464A4A52525262624700009C
:102040000000001C2241414141414141221C00004D
:102050000000003F424242423E02020202070000EC
:102060000000001C2241414141414D53321C60009F
:102070000000003F4242423E1212222242C70000AC
:102080000000007C4242020418204042423E000010
:102090000000007F4908080808080808081C00001C
:1020A000000000E74242424242424242423C0000BB
:1020B000000000E7424222242414141808080000FB
:1020C0000000006B4949494955553622222200003B
:1020D000000000E7422424181818242442E70000D6
:1020E000000000772222141408080808081C0000C9
:1020F0000000007E2120101008040442423F00002E
:10210000007808080808080808080808080878007F
:10211000000002020404080808101020202040409B
:10212000001E1010101010101010101010101E00B3
:102130000038440000000000000000000000000023
:10214000000000000000000000000000000000FF90
:102150000006080000000000000000000000000071
:10216000000000000000003C4278444242FC0000B5
:10217000000000030202021A26424242261A000010
:102180000000000000000038440202024438000051
:1021900000000060404040784442424264D8000061
:1021A000000000000000003C427E0202423C0000B1
:1021B000000000F08808087E08080808083E0000B3
:1021C000000000000000007C22221C023C42423C35
:1021D000000000030202023A4642424242E7000087
:1021E0000000000C0C00000E08080808083E000063
:1021F0000000003030000038202020202020221E47
:102200000000000302020272120A16122277000076
:102210000000000E0808080808080808083E00002A
:10222000000000000000007F9292929292B700009E
:10223000000000000000003B4642424242E700002E
:10224000000000000000003C42424242423C0000CC
:10225000000000000000001B26424242221E02072E
:10226000000000000000007844424242447840E010
:1022700000000000000000774C040404041F00006C
:10228000000000000000007C42023C40423E000092
:10229000000000000008083E080808080830000098
:1022A00000000000000000634242424262DC000085
:1022B00000000000000000E7422424140808000089
:1022C00000000000000000EB4949555522220000A3
:1022D000000000000000007624181818246E00008A
:1022E00000000000000000E742242414180808073A
:1022F000000000000000007E22100808447E00005C
:1023000000C0202020202010202020202020C000DD
:1023100010101010101010101010101010101010BD
:102320000006080808080810080808080808060039
:102330000C32C2000000000000000000000000009D
:10234000000000000000000000000000000000008D
:10235000000000000000000000000000000000007D
:10236000000000000000000000000000000000006D
:10237000000000000000000000000000000000005D
:10B6C0000000000007E007E007E007E007E007E010
:10B6D00007E007E007E007E007E007E007E007E032
:10B6E00007E007E007E007E007E007E007E007E022
:10B6F00007E007E007E007E007E007E007E007E012
:10B7000007E007E007E007E007E007E007E007E001
:10B7100007E007E007E007E007E007E007E007E0F1
:10B7200007E007E00000000000000000000000004B
:10B730000000000000000000000000000000000009
:10B7400000000000000000000000000000000000F9
:10B7500000000000000000000000000000000000E9
:10B7600000000000000000000000000000000000D9
:10B7700000000000000000000000000000000000C9
:10B7800000000000000000000000000000000000B9
:10B7900000000000000000000000000000000000A9
:10B7A0000000000000000000000000000000000099
:10B7B0000000000000000000000000000000000089
:10B7C0000000000000000000000000000000000079
:10B7D0000000000000000000000000000000000069
:10B7E0000000000000000000000000000000000059
:10B7F0000000000000000000000000000000000049
:10B800000000000000000000000000000000000038
:10B810000000000000000000000000000000000028
:10B820000000000000000000000000000000000018
:10B830000000000000000000000000000000000008
:10B8400000000000000000000000000000000000F8
:10B8500000000000000000000000000000000000E8
:10B8600000000000000000000000000000000000D8
:10B8700000000000000000000000000000000000C8
:10B8800000000000000000000000000000000000B8
:10B8900000000000000000000000000000000000A8
:10B8A0000000000007E007E007E007E007E007E02E
:10B8B00007E007E007E007E007E007E007E007E050
:10B8C00007E007E007E007E007E007E007E007E040
:10B8D00007E007E007E007E007E007E007E007E030
:10B8E00007E007E007E007E007E007E007E007E020
:10B8F00007E007E007E007E007E007E007E007E010
:10B9000007E007E000000000000000000000000069
:10B910000000000000000000000000000000000027
:10B920000000000000000000000000000000000017
:10B930000000000000000000000000000000000007
:10B9400000000000000000000000000000000000F7
:10B9500000000000000000000000000000000000E7
:10B9600000000000000000000000000000000000D7
:10B9700000000000000000000000000000000000C7
:10B9800000000000000000000000000000000000B7
:10B9900000000000000000000000000000000000A7
:10B9A0000000000000000000000000000000000097
:10B9B0000000000000000000000000000000000087
:10B9C0000000000000000000000000000000000077
:10B9D0000000000000000000000000000000000067
:10B9E0000000000000000000000000000000000057
:10B9F0000000000000000000000000000000000047
:10BA00000000000000000000000000000000000036
:10BA10000000000000000000000000000000000026
:10BA20000000000000000000000000000000000016
:10BA30000000000000000000000000000000000006
:10BA400000000000000000000000000000000000F6
:10BA500000000000000000000000000000000000E6
:10BA600000000000000000000000000000000000D6
:10BA700000000000000000000000000000000000C6
:10BA80000000000007E007E007E007E007E007E04C
:10BA900007E007E007E007E007E007E007E007E06E
:10BAA00007E007E007E007E007E007E007E007E05E
:10BAB00007E007E007E007E007E007E007E007E04E
:10BAC00007E007E007E007E007E007E007E007E03E
:10BAD00007E007E007E007E007E007E007E007E02E
:10BAE00007E007E000000000000000000000000088
:10BAF0000000000000000000000000000000000046
:10BB00000000000000000000000000000000000035
:10BB10000000000000000000000000000000000025
:10BB20000000000000000000000000000000000015
:10BB30000000000000000000000000000000000005
:10BB400000000000000000000000000000000000F5
:10BB500000000000000000000000000000000000E5
:10BB600000000000000000000000000000000000D5
:10BB700000000000000000000000000000000000C5
:10BB800000000000000000000000000000000000B5
:10BB900000000000000000000000000000000000A5
:10BBA0000000000000000000000000000000000095
:10BBB0000000000000000000000000000000000085
:10BBC0000000000000000000000000000000000075
:10BBD0000000000000000000000000000000000065
:10BBE0000000000000000000000000000000000055
:10BBF0000000000000000000000000000000000045
:10BC00000000000000000000000000000000000034
:10BC10000000000000000000000000000000000024
:10BC20000000000000000000000000000000000014
:10BC30000000000000000000000000000000000004
:10BC400000000000000000000000000000000000F4
:10BC500000000000000000000000000000000000E4
:10BC60000000000007E007E007E007E007E007E06A
:10BC700007E007E007E007E007E007E007E007E08C
:10BC800007E007E007E007E007E007E007E007E07C
:10BC900007E007E007E007E007E007E007E007E06C
:10BCA00007E007E007E007E007E007E007E007E05C
:10BCB00007E007E007E007E007E007E007E007E04C
:10BCC00007E007E0000000000000000000000000A6
:10BCD0000000000000000000000000000000000064
:10BCE0000000000000000000000000000000000054
:10BCF0000000000000000000000000000000000044
:10BD00000000000000000000000000000000000033
:10BD10000000000000000000000000000000000023
:10BD20000000000000000000000000000000000013
:10BD30000000D476000000000000000000000000B9
:10BD400000000000000000000000000000000000F3
:10BD500000000000000000000000000000000000E3
:10BD600000000000000000000000000000000000D3
:10BD700000000000000000000000000000000000C3
:10BD800000000000000000000000000000000000B3
:10BD900000000000000000000000000000000000A3
:10BDA0000000000000000000000000000000000093
:10BDB0000000000000000000000000000000000083
:10BDC0000000000000000000000000000000000073
:10BDD000000000000000000000000000768FFFFF60
:10BDE000FFFFFFFFFFFF07FF57FFFFFF00000000FF
:10BDF0000000000000000000000000000000000043
:10BE00000000000000000000000000000000000032
:10BE10000000000000000000000000000000000022
:10BE20000000000000000000000000000000000012
:10BE30000000000000000000000000000000000002
:10BE40000000000007E007E007E007E007E007E088
:10BE500007E007E007E007E007E007E007E007E0AA
:10BE600007E007E007E007E007E007E007E007E09A
:10BE700007E007E007E007E007E007E007E007E08A
:10BE800007E007E007E007E007E007E007E007E07A
:10BE900007E007E007E007E007E007E007E007E06A
:10BEA00007E007E0000000000000000000000000C4
:10BEB0000000000000000000000000000000000082
:10BEC0000000000000000000000000000000000072
:10BED0000000000000000000000000000000000062
:10BEE0000000000000000000000000000000000052
:10BEF0000000000000000000000000000000000042
:10BF00000000000000000000000000000000000031
:10BF1000FFFFFFFFFFFFFFFF200000000000000009
:10BF20000000000000000000000000000000000011
:10BF30000000000000000000000000000000000001
:10BF400000000000000000000000000000000000F1
:10BF500000000000000000000000000000000000E1
:10BF600000000000000000000000000000000000D1
:10BF700000000000000000000000000000000000C1
:10BF800000000000000000000000000000000000B1
:10BF900000000000000000000000000000000000A1
:10BFA0000000000000000000000000000000000091
:10BFB0000000000000000000FFFFFFFFFFFFFFFF89
:10BFC000FFFFFFFFFFFF05BF063FFFFFFFFFFFFF74
:10BFD000FFFF000000000000000000000000000063
:10BFE0000000000000000000000000000000000051
:10BFF0000000000000000000000000000000000041
:10C000000000000000000000000000000000000030
:10C010000000000000000000000000000000000020
:10C020000000000007E007E007E007E007E007E0A6
:10C0300007E007E007E007E007E007E007E007E0C8
:10C0400007E007E007E007E007E007E007E007E0B8
:10C0500007E007E007E007E007E007E007E007E0A8
:10C0600007E007E007E007E007E007E007E007E098
:10C0700007E007E007E007E007E007E007E007E088
:10C0800007E007E0000000000000000000000000E2
:10C0900000000000000000000000000000000000A0
:10C0A0000000000000000000000000000000000090
:10C0B0000000000000000000000000000000000080
:10C0C0000000000000000000000000000000000070
:10C0D0000000000000000000000000000000000060
:10C0E0000000000000000000000000000000000050
:10C0F0003800073F0000FB80FFFFFFFFFFFF20002D
:10C10000000000000000000000000000000000002F
:10C11000000000000000000000000000000000001F
:10C12000000000000000000000000000000000000F
:10C1300000000000000000000000000000000000FF
:10C1400000000000000000000000000000000000EF
:10C1500000000000000000000000000000000000DF
:10C1600000000000000000000000000000000000CF
:10C1700000000000000000000000000000000000BF
:10C1800000000000000000000000000000000000AF
:10C1900000000000FFFFFFFFFFFF025F0010F7FF3E
:10C1A000AFFF03FD007303DB03FC0074F7FF67FFC1
:10C1B000FFFFFFFF7EFF0000000000000000000006
:10C1C000000000000000000000000000000000006F
:10C1D000000000000000000000000000000000005F
:10C1E000000000000000000000000000000000004F
:10C1F000000000000000000000000000000000003F
:10C200000000000007E007E007E007E007E007E0C4
:10C2100007E007E007E007E007E007E007E007E0E6
:10C2200007E007E007E007E007E007E007E007E0D6
:10C2300007E007E007E007E007E007E007E007E0C6
:10C2400007E007E007E007E007E007E007E007E0B6
:10C2500007E007E007E007E007E007E007E007E0A6
:10C2600007E007E000000000000000000000000000
:10C2700000000000000000000000000000000000BE
:10C2800000000000000000000000000000000000AE
:10C29000000000000000000000000000000000009E
:10C2A000000000000000000000000000000000008E
:10C2B000000000000000000000000000000000007E
:10C2C000000000000000000000000000000000006E
:10C2D00078000FFF07FF07FF00020000FB00FFFFD1
:10C2E000FFFFFFFF2800000000000000000000002A
:10C2F000000000000000000000000000000000003E
:10C30000000000000000000000000000000000002D
:10C31000000000000000000000000000000000001D
:10C32000000000000000000000000000000000000D
:10C3300000000000000000000000000000000000FD
:10C3400000000000000000000000000000000000ED
:10C3500000000000000000000000000000000000DD
:10C3600000000000000000000000000000000000CD
:10C370007F1FFFFFFFFFFFFFFFFFFFFF9FFFFFFF8D
:10C38000FFFF155F00B303FB03FB01B2BFFFFFFF1D
:10C39000BFFFFFFFFFFFFFFF0000000000000000E5
:10C3A000000000000000000000000000000000008D
:10C3B000000000000000000000000000000000007D
:10C3C000000000000000000000000000000000006D
:10C3D000000000000000000000000000000000005D
:10C3E0000000000007E007E007E007E007E007E0E3
:10C3F00007E007E007E007E007E007E007E007E005
:10C4000007E007E007E007E007E007E007E007E0F4
:10C4100007E007E007E007E007E007E007E007E0E4
:10C4200007E007E007E007E007E007E007E007E0D4
:10C4300007E007E007E007E007E007E007E007E0C4
:10C4400007E007E00000000000000000000000001E
:10C4500000000000000000000000000000000000DC
:10C4600000000000000000000000000000000000CC
:10C4700000000000000000000000000000000000BC
:10C4800000000000000000000000000000000000AC
:10C49000000000000000000000000000000000009C
:10C4A000000000000000000000000000000000008C
:10C4B000980057FF17FF07FF07FF07FF07FF00025E
:10C4C0000000FB00FFFFFFFFFFFF2840000000000F
:10C4D000000000000000000000000000000000005C
:10C4E000000000000000000000000000000000004C
:10C4F000000000000000000000000000000000003C
:10C50000000000000000000000000000000000002B
:10C51000000000000000000000000000000000001B
:10C52000000000000000000000000000000000000B
:10C5300000000000000000000000000000000000FB
:10C540000000000000000000000000000000DFFF0D
:10C55000FFFFFFFFFFFFFFFF4EFFFFFFFFFFFFFF9C
:10C56000FFFFFFFF001203DB04BD0378000FFFFF96
:10C5700015DFFFFFFFFFFFFFFFFF000000000000CF
:10C5800000000000000000000000000000000000AB
:10C59000000000000000000000000000000000009B
:10C5A000000000000000000000000000000000008B
:10C5B000000000000000000000000000000000007B
:10C5C0000000000007E007E007E007E007E007E001
:10C5D00007E007E007E007E007E007E007E007E023
:10C5E00007E007E007E007E007E007E007E007E013
:10C5F00007E007E007E007E007E007E007E007E003
:10C6000007E007E007E007E007E007E007E007E0F2
:10C6100007E007E007E007E007E007E007E007E0E2
:10C6200007E007E00000000000000000000000003C
:10C6300000000000000000000000000000000000FA
:10C6400000000000000000000000000000000000EA
:10C6500000000000000000000000000000000000DA
:10C6600000000000000000000000000000000000CA
:10C6700000000000000000000000000000000000BA
:10C6800000000000000000000000000000000000AA
:10C69000900077FF3FFF3FFF37FF1FFF07FF07FFB8
:10C6A00007FF07FF00010000FB60FFFFFFFFFFFF28
:10C6B0003840000000000000000000000000000002
:10C6C000000000000000000000000000000000006A
:10C6D000000000000000000000000000000000005A
:10C6E000000000000000000000000000000000004A
:10C6F000000000000000000000000000000000003A
:10C700000000000000000000000000000000000029
:10C710000000000000000000000000000000000019
:10C72000000000000000000000000000EFFFFFFF1D
:10C73000FFFFFFFFFFFFCFFF000AFFFFFFFFFFFF2D
:10C74000FFFFFFFF003203FD051E049D0317004F8E
:10C7500000000417FFFF02B79FFF027E00000000E9
:10C7600000000000000000000000000000000000C9
:10C7700000000000000000000000000000000000B9
:10C7800000000000000000000000000000000000A9
:10C790000000000000000000000000000000000099
:10C7A0000000000007E007E007E007E007E007E01F
:10C7B00007E007E007E007E007E007E007E007E041
:10C7C00007E007E007E007E007E007E007E007E031
:10C7D00007E007E007E007E007E007E007E007E021
:10C7E00007E007E007E007E007E007E007E007E011
:10C7F00007E007E007E007E007E007E007E007E001
:10C8000007E007E00000000000000000000000005A
:10C810000000000000000000000000000000000018
:10C820000000000000000000000000000000000008
:10C8300000000000000000000000000000000000F8
:10C8400000000000000000000000000000000000E8
:10C8500000000000000000000000000000000000D8
:10C8600000000000000000000000000000000000C8
:10C8700098007FFF57FF57FF4FFF37FF2FFF1FFF26
:10C880000FFF07FF07FF07FF07FF00000000FB6027
:10C89000FFFFFFFFFFFF3840000000000000000026
:10C8A0000000000000000000000000000000000088
:10C8B0000000000000000000000000000000000078
:10C8C0000000000000000000000000000000000068
:10C8D0000000000000000000000000000000000058
:10C8E0000000000000000000000000000000000048
:10C8F0000000000000000000000000000000000038
:10C90000000000000000000000000000FFFFFFFF2B
:10C91000FFFFFFFFFFFFFFFFFFFFFFFFFFFFFFFF27
:10C92000000DFFFF5F7F045E0D7F0D5F047B03380A
:10C93000000AFFFFFFFF000B051E0004FFFF0000C1
:10C9400000000000000000000000000000000000E7
:10C9500000000000000000000000000000000000D7
:10C9600000000000000000000000000000000000C7
:10C9700000000000000000000000000000000000B7
:10C980000000000007E007E007E007E007E007E03D
:10C9900007E007E007E007E007E007E007E007E05F
:10C9A00007E007E007E007E007E007E007E007E04F
:10C9B00007E007E007E007E007E007E007E007E03F
:10C9C00007E007E007E007E007E007E007E007E02F
:10C9D00007E007E007E007E007E007E007E007E01F
:10C9E00007E007E000000000000000000000000079
:10C9F0000000000000000000000000000000000037
:10CA00000000000000000000000000000000000026
:10CA10000000000000000000000000000000000016
:10CA20000000000000000000000000000000000006
:10CA300000000000000000000000000000000000F6
:10CA400000000000000000000000000000000000E6
:10CA5000880087FF4FFF57FF4FFF37FF3FFF37FF2C
:10CA600027FF27FF0FFF07FF07FF07FF07FF07FF4E
:10CA700000000000FB60FFFFFFFFFFFF40800000A1
:10CA800000000000000000000000000000000000A6
:10CA90000000000000000000000000000000000096
:10CAA0000000000000000000000000000000000086
:10CAB0000000000000000000000000000000000076
:10CAC0000000000000000000000000000000000066
:10CAD0000000000000000000000000000000000056
:10CAE00000000000000000000000FFFFFFFFFFFF4C
:10CAF000FFFFFFFFFFFFFFFFFFFFFFFF00D6FFFF6E
:10CB000002BC029A041D055F1D9F155F055F041B93
:10CB100001D20007FFFF4E3FFFFFFFFFFFFF253859
:10CB20000000000000000000000000000000000005
:10CB300000000000000000000000000000000000F5
:10CB400000000000000000000000000000000000E5
:10CB500000000000000000000000000000000000D5
:10CB60000000000007E007E007E007E007E007E05B
:10CB700007E007E007E007E007E007E007E007E07D
:10CB800007E007E007E007E007E007E007E007E06D
:10CB900007E007E007E007E007E007E007E007E05D
:10CBA00007E007E007E007E007E007E007E007E04D
:10CBB00007E007E007E007E007E007E007E007E03D
:10CBC00007E007E000000000000000000000000097
:10CBD0000000000000000000000000000000000055
:10CBE0000000000000000000000000000000000045
:10CBF0000000000000000000000000000000000035
:10CC00000000000000000000000000000000000024
:10CC10000000000000000000000000000000000014
:10CC20000000000000000000000000000000000004
:10CC3000880087FF4FFF4FFF37FF37FF37FF37FF72
:10CC40002FFF27FF1FBF1FFF17FF07FF07FF07FF6C
:10CC500007FF07FF07FF00000000FB80FFFFFFFF4B
:10CC6000FFFF4880000000000000000000000000FE
:10CC700000000000000000000000000000000000B4
:10CC800000000000000000000000000000000000A4
:10CC90000000000000000000000000000000000094
:10CCA0000000000000000000000000000000000084
:10CCB0000000000000000000000000000000000074
:10CCC0000000000000000000FFFFFFFFFFFFFFFF6C
:10CCD000FFFFFFFFFFFFFFFF0077019A02DD03BEAA
:10CCE00004BF055F0D9F1DDF1D9F1DBF151F04FDA8
:10CCF0000398004C0000FFFFFFFFFFFFFFFFFFFF57
:10CD00000000000000000000000000000000000023
:10CD10000000000000000000000000000000000013
:10CD20000000000000000000000000000000000003
:10CD300000000000000000000000000000000000F3
:10CD40000000000007E007E007E007E007E007E079
:10CD500007E007E007E007E007E007E007E007E09B
:10CD600007E007E007E007E007E007E007E007E08B
:10CD700007E007E007E007E007E007E007E007E07B
:10CD800007E007E007E007E007E007E007E007E06B
:10CD900007E007E007E007E007E007E007E007E05B
:10CDA00007E007E0000000000000000000000000B5
:10CDB0000000000000000000000000000000000073
:10CDC0000000000000000000000000000000000063
:10CDD0000000000000000000000000000000000053
:10CDE0000000000000000000000000000000000043
:10CDF0000000000000000000000000000000000033
:10CE00000000000000000000000000000000000022
:10CE100088007FFF47FF3FFF3FFF3FFF37FF2FFFA8
:10CE20002FFF27FF27FF27FF1FBF0FFF07FF0FFF62
:10CE300007FF07FF07FF07FF07FF079F000000002E
:10CE4000FBC0FFFFFFFFFFFF50A00000000000003D
:10CE500000000000000000000000000000000000D2
:10CE600000000000000000000000000000000000C2
:10CE700000000000000000000000000000000000B2
:10CE800000000000000000000000000000000000A2
:10CE90000000000000000000000000000000000092
:10CEA0000000000000000000FFFFFFFF043F01DF63
:10CEB000FFFFFFFF1E7F023C035F055F061F163F5B
:10CEC0001E5F2E5F265F1E3F25FF257F15BF053F96
:10CED000047A02130000FFFFFFFFFFFFFFFFFFFFC9
:10CEE000033000000000000000000000000000000F
:10CEF0000000000000000000000000000000000032
:10CF00000000000000000000000000000000000021
:10CF10000000000000000000000000000000000011
:10CF20000000000007E007E007E007E007E007E097
:10CF300007E007E007E007E007E007E0072006203A
:10CF400005A005A005A005A005A005A005A005A0B9
:10CF500005A005A005A005A005A005A005A005A0A9
:10CF600005A005A005A005A00620072007E007E012
:10CF700007E007E007E007E007E007E007E007E079
:10CF800007E007E0000000000000000000000000D3
:10CF90000000000000000000000000000000000091
:10CFA0000000000000000000000000000000000081
:10CFB0000000000000000000000000000000000071
:10CFC0000000000000000000000000000000000061
:10CFD0000000000000000000000000000000000051
:10CFE0000000000000000000000000000000000041
:10CFF00080007FFF4FFF37FF37FF37FF3FFF2FFFD7
:10D000002FFF2FFF27FF1FBF27BF17BF179F0F9FA0
:10D010000FBF07BF07FF07FF07FF07FF07FF07FF58
:10D02000075F00000000FB80FFFFFFFFFFFF000025
:10D0300000000000000000000000000000000000F0
:10D0400000000000000000000000000000000000E0
:10D0500000000000000000000000000000000000D0
:10D0600000000000000000000000000000000000C0
:10D0700000000000FFFFFFFF0000000000000000B4
:10D080000000000000000000FFFFE7FF011E013D5F
:10D09000471FFFFF01FC043F05DF1E9F2E9F2E9FB1
:10D0A0002EBF2E5F2E3F2E1F2E1F25DF157F059FC3
:10D0B00004BC02F60001BFFFFFFFFFFFFFFFFFFF01
:10D0C000FFFF000000000000000000000000000062
:10D0D0000000000000000000000000000000000050
:10D0E0000000000000000000000000000000000040
:10D0F0000000000000000000000000000000000030
:10D100000000000007E007E007E007E007E007E0B5
:10D1100007E007E007E007E007E006E0FFFFFFFFAA
:10D12000FFFFFFFFFFFFFFFFFFFFFFFFFFFFFFFF0F
:10D13000FFFFFFFFFFFFFFFFFFFFFFFFFFFFFFFFFF
:10D14000FFFFFFFFFFFFFFFFFFFFFFFF072007E0DD
:10D1500007E007E007E007E007E007E007E007E097
:10D1600007E007E0000000000000000000000000F1
:10D1700000000000000000000000000000000000AF
:10D18000000000000000000000000000000000009F
:10D19000000000000000000000000000000000008F
:10D1A000000000000000000000000000000000007F
:10D1B000000000000000000000000000000000006F
:10D1C000000000000000000000000000000000005F
:10D1D00088007FFF3FFF37FF3FFF37FF3FFF37FFED
:10D1E0002FFF2FFF27FF1FBF1FBF17FF17BF179F5F
:10D1F000179F0F9F075F075F0FFF0FFF07FF07FFD7
:10D2000007FF07FF07FF063F00000000FFFF0000C9
:10D21000000000000000000000000000000000000E
:10D2200000000000000000000000000000000000FE
:10D2300000000000000000000000000000000000EE
:10D2400000000000000000000000000000000000DE
:10D2500000000000FE94FFFFFFFFFFFFFFFF000044
:10D26000000000000000051FFFFF87FF049F02FF72
:10D27000057F061F03FF05BF267F2EFF36DF2EDF4B
:10D2800036BF2EBF269F2E1F261F1DFF1DBF0D9FC1
:10D2900004BC02B50000FFFFFFFFFFFFFFFFFFFF21
:10D2A000FFFF000000000000000000000000000080
:10D2B000000000000000000000000000000000006E
:10D2C000000000000000000000000000000000005E
:10D2D000000000000000000000000000000000004E
:10D2E0000000000007E007E007E007E007E007E0D4
:10D2F00007E007E007E007E007E00620FFFFFFFF89
:10D30000FFFFFFFFFFFFFFFFFFFFFFFFFFFFFFFF2D
:10D31000FFFFFFFFFFFFFFFFFFFFFFFFFFFFFFFF1D
:10D32000FFFFFFFFFFFFFFFFFFFFFFFF066007E0BC
:10D3300007E007E007E007E007E007E007E007E0B5
:10D3400007E007E00000000000000000000000000F
:10D3500000000000000000000000000000000000CD
:10D3600000000000000000000000000000000000BD
:10D3700000000000000000000000000000000000AD
:10D38000000000000000000000000000000000009D
:10D39000000000000000000000000000000000008D
:10D3A000000000000000000000000000000000007D
:10D3B000800077FF37FF3FFF2FFF2FFF2FFF37FF43
:10D3C0002FFF2FFF27FF2FBF1FBF17BF0FBF1F9FAD
:10D3D0000F9F0FBF1FBF1FFF2FFF06FF067F069F78
:10D3E000075F07FF07FF07FF07FF0000FFFF0000C1
:10D3F000000000000000000000000000000000002D
:10D40000000000000000000000000000000000001C
:10D41000000000000000000000000000000000000C
:10D4200000000000000000000000000000000000FC
:10D43000000000005E1F07FF03BF3800FE47FFFF2C
:10D44000FFFFFFFF000007FF7FFFFFFFFFFF03FF5E
:10D45000FFFFEFFF03DF05BF1E7F2EFF36DF2EDF4E
:10D460002EDF36BF269F2E5F261F25BF259F157FE7
:10D4700004BC02F50002FFFFFFFFFFFFFFFFFFFFFD
:10D48000FFFF00020000000000000000000000009C
:10D49000000000000000000000000000000000008C
:10D4A000000000000000000000000000000000007C
:10D4B000000000000000000000000000000000006C
:10D4C0000000000007E007E007E007E007E007E0F2
:10D4D00007E007E007E007E007E00620FFFFFFFFA7
:10D4E000FFFFFFFFFFFFFFFFFFFFFFFFFFFFFFFF4C
:10D4F000FFFFFFFFFFFFFFFFFFFFFFFFFFFFFFFF3C
:10D50000FFFFFFFFFFFFFFFFFFFFFFFF066007E0DA
:10D5100007E007E007E007E007E007E007E007E0D3
:10D5200007E007E00000000000000000000000002D
:10D5300000000000000000000000000000000000EB
:10D5400000000000000000000000000000000000DB
:10D5500000000000000000000000000000000000CB
:10D5600000000000000000000000000000000000BB
:10D5700000000000000000000000000000000000AB
:10D58000000000000000000000000000000000009B
:10D5900088007FFF3FFF2FFF37FF37FF2FFF2FFF51
:10D5A0002FFF27FF27FF2FBF27FF1FBF17BF1FFF1B
:10D5B00027FF2FFF47FF079F061F067F069F069F37
:10D5C00006DF073F075F07FF07FF2800FFFF000098
:10D5D000000000000000000000000000000000004B
:10D5E000000000000000000000000000000000003B
:10D5F000000000000000000000000000000000002B
:10D60000000000000000000000000000000000001A
:10D6100000000000D57017FF07FF07FF07FF01F6A6
:10D620003800FCA0FFFFFFFFFFFFFFFFFFFF015FD0
:10D63000063FFFFF021E043F05BF1EBF2EDF2EDF89
:10D640002EDF36BF267F2E5F261F1DFF259F0D9FD5
:10D6500004BC03360007CFFFFFFFFFFFFFFFFFFF04
:10D66000FFFF2E1B00000000000000000000000073
:10D6700000000000000000000000000000000000AA
:10D68000000000000000000000000000000000009A
:10D69000000000000000000000000000000000008A
:10D6A0000000000007E007E007E007E007E007E010
:10D6B00007E007E007E007E007E005E0FFFFFFFF06
:10D6C000FFFFFFFFDFFB07E0FFFFFFFFFFFFFFFFA5
:10D6D000FFFF2FE54FE9FFFFFFFFFFFFFFFFFFFF0A
:10D6E00007E0FFFFFFFFFFFFFFFFFFFF062007E050
:10D6F00007E007E007E007E007E007E007E007E0F2
:10D7000007E007E00000000000000000000000004B
:10D710000000000000000000000000000000000009
:10D7200000000000000000000000000000000000F9
:10D7300000000000000000000000000000000000E9
:10D7400000000000000000000000000000000000D9
:10D7500000000000000000000000000000000000C9
:10D7600000000000000000000000000000000000B9
:10D7700080007FFF3FFF2FFF2FFF37FF37FF2FFF77
:10D7800037FF2FFF27BF2FBF27BF27FF2FFF37FFF1
:10D790004FFF179F063F061F069F06FF06FF06FF67
:10D7A00006FF06FF06FF07FF07FF2800FFFF000038
:10D7B0000000000000000000000000000000000069
:10D7C0000000000000000000000000000000000059
:10D7D0000000000000000000000000000000000049
:10D7E0000000000000000000000000000000000039
:10D7F00000000000E3EB57FF2FFF1FFF07FF07FFAD
:10D8000007FF07FF000C0000F800FFFAFFFFFFFF13
:10D8100005BF055FFFFFD7FF04BF061F0E5F1E9FFA
:10D820002E5F2E7F267F265F2E1F25DF157F155F3B
:10D83000051D03D8008C0000FFFFFFFFFFFFFFFF67
:10D84000FFFFFFFF000000000000000000000000DC
:10D8500000000000000000000000000000000000C8
:10D8600000000000000000000000000000000000B8
:10D8700000000000000000000000000000000000A8
:10D880000000000007E007E007E007E007E007E02E
:10D8900007E007E007E007E007E005A0FFFFFFFF64
:10D8A000FFFFFFFF03400360CFF9FFFFFFFFFFFF14
:10D8B000FFFF03200320FFFFFFFFFFFFFFFF8FF1AC
:10D8C00003600380FFFFFFFFFFFFFFFF062007E06D
:10D8D00007E007E007E007E007E007E007E007E010
:10D8E00007E007E00000000000000000000000006A
:10D8F0000000000000000000000000000000000028
:10D900000000000000000000000000000000000017
:10D910000000000000000000000000000000000007
:10D9200000000000000000000000000000000000F7
:10D9300000000000000000000000000000000000E7
:10D9400000000000000000000000000000000000D7
:10D9500088006FFF3FFF2FFF2FFF2FFF2FFF2FFFAD
:10D9600027FF27FF2FFF37FF2FBF3FFF57FF27FF5F
:10D97000069F063F067F069F069F06FF06FF06FFDF
:10D9800006FF06FF06FF07FF07FF2000FFFF00005E
:10D990000000000000000000000000000000000087
:10D9A0000000000000000000000000000000000077
:10D9B0000000000000000000000000000000000067
:10D9C0000000000000000000000000000000000057
:10D9D00000000000EC2A6FFF4FFF57FF3FFF27FFBB
:10D9E0000FFF07FF07FF07FF079F00030000F80076
:10D9F000FFFCFFFFFFFFFFFF039F04BF057F05BF85
:10DA000005BF0DFF1E1F1E3F1DBF1DBF151F0D5F54
:10DA100004FE041902110000FFFFFFFFFFFFFFFFDC
:10DA20000000FFFF000000000000000000000000F8
:10DA300000000000000000000000000000000000E6
:10DA400000000000000000000000000000000000D6
:10DA500000000000000000000000000000000000C6
:10DA60000000000007E007E007E007E007E007E04C
:10DA700007E007E007E007E007E005E0FFFFFFFF42
:10DA8000FFFFFFFF04600520FFFFFFFFFFFFFFFF19
:10DA9000FFFF04E004A0FFFFFFFFFFFFFFFFBFF752
:10DAA00005200460FFFFFFFFFFFFFFFF066007E0A8
:10DAB00007E007E007E007E007E007E007E007E02E
:10DAC00007E007E000000000000000000000000088
:10DAD0000000000000000000000000000000000046
:10DAE0000000000000000000000000000000000036
:10DAF0000000000000000000000000000000000026
:10DB00000000000000000000000000000000000015
:10DB10000000000000000000000000000000000005
:10DB200000000000000000000000000000000000F5
:10DB300078006FFF2FFF2FFF2FFF2FFF2FFF37FFE3
:10DB40002FFF2FFF37BF3FFF5FFF57FF069F063FA7
:10DB5000067F06DF06FF06DF06FF06DF06FF06FF7D
:10DB600006FF06FF06FF07FF07FF1800FFFF000084
:10DB700000000000000000000000000000000000A5
:10DB80000000000000000000000000000000000095
:10DB90000000000000000000000000000000000085
:10DBA0000000000000000000000000000000000075
:10DBB00000000000EC4977FF57FF57FF4FFF3FFF82
:10DBC0002FFF1FFF1FFF07FF07FF07FF07FF075F6D
:10DBD00000010000F800FFFEFFFFFFFF8FFF043F82
:10DBE000045F049F055F055F055F157F051F053F07
:10DBF00004DD041B0316000A0000FFFFFFFF0231D3
:10DC00000000D7FF0000000000000000000000003E
:10DC10000000000000000000000000000000000004
:10DC200000000000000000000000000000000000F4
:10DC300000000000000000000000000000000000E4
:10DC40000000000007E007E007E007E007E007E06A
:10DC500007E007E007E007E007E005A0FFFFFFFFA0
:10DC6000FFFFFFFF04E00560FFFFFFFFFFFFFFFF77
:10DC7000FFFF052004E0FFFFFFFFFFFFFFFFF7FEB0
:10DC8000056004E0FFFFFFFFFFFFFFFF062007E046
:10DC900007E007E007E007E007E007E007E007E04C
:10DCA00007E007E0000000000000000000000000A6
:10DCB0000000000000000000000000000000000064
:10DCC0000000000000000000000000000000000054
:10DCD0000000000000000000000000000000000044
:10DCE0000000000000000000000000000000000034
:10DCF0000000000000000000000000000000000024
:10DD00000000000000000000000000000000000013
:10DD1000780077FF37FF37FF37FF37FF37FF2FFFD9
:10DD200037FF47FF57FF67FF073F061F063F067F86
:10DD300006FF06FF06FF06FF06FF06FF06FF073F7A
:10DD4000073F073F075F07FF07FF1800FFFF0000BF
:10DD500000000000000000000000000000000000C3
:10DD600000000000000000000000000000000000B3
:10DD700000000000000000000000000000000000A3
:10DD80000000000000000000000000000000000093
:10DD900000000000E4697FFF47FF4FFF3FFF3FFFA8
:10DDA00037FF37FF27FF17FF1FFF07FF07FF07FF9B
:10DDB00007FF07FF069F00000000F800FFFFFFFFBE
:10DDC000FFFF87FF02FF033E03FE03DD049C04BD4B
:10DDD000049C045A0377027200090000000000004E
:10DDE00001D1000000000000000000000000000061
:10DDF0000000000000000000000000000000000023
:10DE00000000000000000000000000000000000012
:10DE10000000000000000000000000000000000002
:10DE20000000000007E007E007E007E007E007E088
:10DE300007E007E007E007E007E005A0FFFFFFFFBE
:10DE4000FFFFFFFF04E00560FFFFFFFFFFFFFFFF95
:10DE5000FFFF052004E0FFFFFFFFFFFFFFFFFFFFC5
:10DE6000056004E0FFFFFFFFFFFFFFFF062007E064
:10DE700007E007E007E007E007E007E007E007E06A
:10DE800007E007E0000000000000000000000000C4
:10DE90000000000000000000000000000000000082
:10DEA0000000000000000000000000000000000072
:10DEB0000000000000000000000000000000000062
:10DEC0000000000000000000000000000000000052
:10DED0000000000000000000000000000000000042
:10DEE0000000000000000000000000000000000032
:10DEF000780077FF37FF2FFF2FFF2FFF37FF3FFF00
:10DF000057FF67FF075F061F063F06DF06DF06DFD6
:10DF100006DF06DF073F073F073F073F073F073F93
:10DF2000073F073F075F07FF07FF1000FFFF0000E5
:10DF300000000000000000000000000000000000E1
:10DF400000000000000000000000000000000000D1
:10DF500000000000000000000000000000000000C1
:10DF600000000000000000000000000000000000B1
:10DF700000000000E44A7FFF47FF37FF3FFF3FFFFD
:10DF800037FF37FF27FF27FF27FF0FBF179F07FF29
:10DF900007FF07FF07FF07FF07FF06DF000000007E
:10DFA000F800FFFFFFFFFFFF7FBF0219033A03FBEB
:10DFB000045A0439039603750292014D010B01EED8
:10DFC00004BC000000000000000000000000000091
:10DFD0000000000000000000000000000000000041
:10DFE0000000000000000000000000000000000031
:10DFF0000000000000000000000000000000000021
:10E000000000000007E007E007E007E007E007E0A6
:10E0100007E007E007E007E007E005E0FFFFFFFF9C
:10E02000FFFFFFFF04E005A0FFFFFFFFFFFFFFFF73
:10E03000FFFF05600520FFFFFFFFFFFFFFFFFFFF62
:10E0400005A004E0FFFFFFFFFFFFFFFF066007E002
:10E0500007E007E007E007E007E007E007E007E088
:10E0600007E007E0000000000000000000000000E2
:10E0700000000000000000000000000000000000A0
:10E080000000000000000000000000000000000090
:10E090000000000000000000000000000000000080
:10E0A0000000000000000000000000000000000070
:10E0B0000000000000000000000000000000000060
:10E0C0000000000000000000000000000000000050
:10E0D00090008FFF47FF37FF37FF3FFF4FFF77FF6E
:10E0E0001FBF067F063F069F073F073F073F073FCB
:10E0F000073F06DF06DF073F073F073F073F073FB2
:10E10000073F06FF079F07FF07FF0800FFFF00000C
:10E1100000000000000000000000000000000000FF
:10E1200000000000000000000000000000000000EF
:10E1300000000000000000000000000000000000DF
:10E1400000000000000000000000000000000000CF
:10E1500000000000E3C86FFF47FF37FF37FF37FFBE
:10E1600037FF37FF2FFF2FFF1FBF1FBF17BF079FAF
:10E170000F9F07BF07BF07FF07FF07FF07FF07FF47
:10E18000067F00000000F800FFFFFFFFD7FF033805
:10E1900003D9041803D7037502D2027102100313C6
:10E1A000165F0000000000000000000000000000FA
:10E1B000000000000000000000000000000000005F
:10E1C000000000000000000000000000000000004F
:10E1D000000000000000000000000000000000003F
:10E1E0000000000007E007E007E007E007E007E0C5
:10E1F00007E007E007E007E007E005A0FFFFFFFFFB
:10E20000FFFFFFFF04E00560FFFFFFFFFFFFFFFFD1
:10E21000FFFF052004E0FFFFFFFFFFFFFFFFFFFF01
:10E22000056004E0FFFFFFFFFFFFFFFF062007E0A0
:10E2300007E007E007E007E007E007E007E007E0A6
:10E2400007E007E000000000000000000000000000
:10E2500000000000000000000000000000000000BE
:10E2600000000000000000000000000000000000AE
:10E27000000000000000000000000000000000009E
:10E28000000000000000000000000000000000008E
:10E29000000000000000000000000000000000007E
:10E2A000000000000000000000000000000000006E
:10E2B000CA20AFFFA7FF77FF67FF77FF47FF07FF82
:10E2C000075F073F073F073F06DF073F073F073F5F
:10E2D000073F073F073F06FF073F073F073F073F4F
:10E2E000073F073F073F07FF07FF0000FFFF000052
:10E2F000000000000000000000000000000000001E
:10E30000000000000000000000000000000000000D
:10E3100000000000000000000000000000000000FD
:10E3200000000000000000000000000000000000ED
:10E3300000000000E4686FFF47FF3FFF37FF3FFF2B
:10E340002FFF37FF2FFF27FF1FBF1FBF17FF1F9F85
:10E350000F9F17BF0FBF07BF17FF17FF07FF079FCD
:10E3600007FF07FF07FF073F0000FC01D7BF02B808
:10E3700003B803F803B60354031302B1027103D7C1
:10E38000165F000000000000000000000000000018
:10E39000000000000000000000000000000000007D
:10E3A000000000000000000000000000000000006D
:10E3B000000000000000000000000000000000005D
:10E3C0000000000007E007E007E007E007E007E0E3
:10E3D00007E007E007E007E007E005A0FFFFFFFF19
:10E3E000FFFFFFFF04E00560FFFFFFFFFFFFFFFFF0
:10E3F000FFFF052004E0FFFFFFFFFFFFFFFFFFFF20
:10E40000056004E0FFFFFFFFFFFFFFFF062007E0BE
:10E4100007E007E007E007E007E007E007E007E0C4
:10E4200007E007E00000000000000000000000001E
:10E4300000000000000000000000000000000000DC
:10E4400000000000000000000000000000000000CC
:10E4500000000000000000000000000000000000BC
:10E4600000000000000000000000000000000000AC
:10E47000000000000000000000000000000000009C
:10E48000000000000000000000000000000000008C
:10E490000000000020007000865F0FFF07FF07FFED
:10E4A00007FF07FF07FF07FF075F073F079F079F5C
:10E4B000073F073F073F073F073F075F075F075FCC
:10E4C000075F075F075F07FF07FF0000FFFF000010
:10E4D000000000000000000000000000000000003C
:10E4E000000000000000000000000000000000002C
:10E4F000000000000000000000000000000000001C
:10E50000000000000000000000000000000000000B
:10E5100000000000E3E777FF37FF2FFF2FFF2FFFFB
:10E5200037FF37FF2FFF27FF1FBF1FBF17BF179FE3
:10E5300017FF1FBF27BF2FFF27FF06DF063F06DF9E
:10E54000075F079F07FF07FF0002FDE6E7FF02984E
:10E55000039703D703750334029202300312051F99
:10E5600001080000000000000000000000000000A2
:10E57000000000000000000000000000000000009B
:10E58000000000000000000000000000000000008B
:10E59000000000000000000000000000000000007B
:10E5A0000000000007E007E007E007E007E007E001
:10E5B00007E007E007E007E007E005E0FFFFFFFFF7
:10E5C000FFFFFFFF04E005A0FFFFFFFFFFFFFFFFCE
:10E5D000FFFF05600520FFFFFFFFFFFFFFFFFFFFBD
:10E5E00005A004E0FFFFFFFFFFFFFFFF062007E09D
:10E5F00007E007E007E007E007E007E007E007E0E3
:10E6000007E007E00000000000000000000000003C
:10E6100000000000000000000000000000000000FA
:10E6200000000000000000000000000000000000EA
:10E6300000000000000000000000000000000000DA
:10E6400000000000000000000000000000000000CA
:10E6500000000000000000000000000000000000BA
:10E6600000000000000000000000000000000000AA
:10E67000000000000000000000003000600014FFF7
:10E680001FFF0FFF0FFF07FF07FF07FF07FF07BF72
:10E69000079F075F075F075F075F075F075F075F0A
:10E6A000075F075F079F07FF07FF0000FFFF0000EE
:10E6B000000000000000000000000000000000005A
:10E6C000000000000000000000000000000000004A
:10E6D000000000000000000000000000000000003A
:10E6E000000000000000000000000000000000002A
:10E6F00000000000DB676FFF37FF2FFF2FFF2FFFAA
:10E700002FFF2F9F2FFF27FF2FBF27BF27BF1FFFE1
:10E7100027FF47FF37FF06DF061F067F069F06FF1E
:10E72000073F073F07FF07FF0000FE47E7FF0236EE
:10E7300003160336035403130251029003F7173FE5
:10E7400000000000000000000000000000000000C9
:10E7500000000000000000000000000000000000B9
:10E7600000000000000000000000000000000000A9
:10E770000000000000000000000000000000000099
:10E780000000000007E007E007E007E007E007E01F
:10E7900007E007E007E007E007E005E0FFFFFFFF15
:10E7A000FFFFFFFF04E00560FFFFFFFFFFFFFFFF2C
:10E7B000FFFF052004E0FFFFFFFFFFFFFFFFFFFF5C
:10E7C000056004E0FFFFFFFFFFFFFFFF05E007E03C
:10E7D00007E007E007E007E007E007E007E007E001
:10E7E00007E007E00000000000000000000000005B
:10E7F0000000000000000000000000000000000019
:10E800000000000000000000000000000000000008
:10E8100000000000000000000000000000000000F8
:10E8200000000000000000000000000000000000E8
:10E8300000000000000000000000000000000000D8
:10E8400000000000000000000000000000000000C8
:10E8500000000000000000000000000000000000B8
:10E86000500068001CDF37FF1FFF0FFF07FF07FF87
:10E8700007FF07FF07FF079F075F075F075F075F48
:10E88000075F075F07BF07FF07FF0000FFFF0000EC
:10E890000000000000000000000000000000000078
:10E8A0000000000000000000000000000000000068
:10E8B0000000000000000000000000000000000058
:10E8C0000000000000000000000000000000000048
:10E8D00000000000DB656FFF3FFF2FFF37FF2FFFBA
:10E8E00037FF379F27FF27FF2FFF2FBF37FF47FF38
:10E8F0004FFF06FF063F067F069F069F069F069F67
:10E9000006FF073F07FF07FF0000FEA8E7FF0235ED
:10E9100003150354031202700271031405BF0002B1
:10E9200000000000000000000000000000000000E7
:10E9300000000000000000000000000000000000D7
:10E9400000000000000000000000000000000000C7
:10E9500000000000000000000000000000000000B7
:10E960000000000007E007E007E007E007E007E03D
:10E9700007E007E007E007E007E005A0FFFFFFFF73
:10E98000FFFFFFFF04E00560FFFFFFFFFFFFFFFF4A
:10E99000FFFF052004E0FFFFFFFFFFFFFFFFFFFF7A
:10E9A000056004E0FFFFFFFFFFFFFFFF05E007E05A
:10E9B00007E007E007E007E007E007E007E007E01F
:10E9C00007E007E000000000000000000000000079
:10E9D0000000000000000000000000000000000037
:10E9E0000000000000000000000000000000000027
:10E9F0000000000000000000000000000000000017
:10EA00000000000000000000000000000000000006
:10EA100000000000000000000000000000000000F6
:10EA200000000000000000000000000000000000E6
:10EA300000000000000000000000000000000000D6
:10EA40000000000000003800480003FA1FFF0FFF1D
:10EA500007FF07FF07FF07FF07FF0FBF075F075FFE
:10EA600007BF079F07BF07FF07FF0000FFFF00006A
:10EA70000000000000000000000000000000000096
:10EA80000000000000000000000000000000000086
:10EA90000000000000000000000000000000000076
:10EAA0000000000000000000000000000000000066
:10EAB00000000000E34567FF3FFF2FFF37FF37FFF0
:10EAC0002FFF27FF2FFF37BF2FFF4FFF67FF075F86
:10EAD000061F063F06DF06FF06FF06FF06DF06DF0E
:10EAE00006FF075F07FF07FF0000FEA8E7FF0151D1
:10EAF00002D3031302D102910332047B055F0000AD
:10EB00000000000000000000000000000000000005
:10EB100000000000000000000000000000000000F5
:10EB200000000000000000000000000000000000E5
:10EB300000000000000000000000000000000000D5
:10EB40000000000007E007E007E007E007E007E05B
:10EB500007E007E007E007E007E005E0FFFFFFFF51
:10EB6000FFFFFFFF04E005A0FFFFFFFFFFFFFFFF28
:10EB7000FFFF05600520FFFFFFFFFFFFFFFFFFFF17
:10EB800005A004E0FFFFFFFFFFFFFFFF062007E0F7
:10EB900007E007E007E007E007E007E007E007E03D
:10EBA00007E007E000000000000000000000000097
:10EBB0000000000000000000000000000000000055
:10EBC0000000000000000000000000000000000045
:10EBD0000000000000000000000000000000000035
:10EBE0000000000000000000000000000000000025
:10EBF0000000000000000000000000000000000015
:10EC00000000000000000000000000000000000004
:10EC100000000000000000000000000000000000F4
:10EC200000000000000000000000000000000000E4
:10EC3000000107FF07FF07FF07FF0FFF07FF17FF91
:10EC40000FBF0F9F0FBF07FF07FF0000FFFF000070
:10EC500000000000000000000000000000000000B4
:10EC600000000000000000000000000000000000A4
:10EC70000000000000000000000000000000000094
:10EC80000000000000000000000000000000000084
:10EC900000000000DB4567FF2FFF37FF37FF37FF1E
:10ECA00037FF37FF3FFF4FFF67FF2FFF061F063F6E
:10ECB000067F06DF06DF06FF06FF06FF06FF06DF0C
:10ECC00006DF075F07FF07FF0000FEC9E7FF010F30
:10ECD0000252029202D002D30419279F00000000C2
:10ECE0000000000000000000000000000000000024
:10ECF0000000000000000000000000000000000014
:10ED00000000000000000000000000000000000003
:10ED100000000000000000000000000000000000F3
:10ED20000000000007E007E007E007E007E007E079
:10ED300007E007E007E007E007E005E0FFFFFFFF6F
:10ED4000FFFFFFFF04E00560FFFFFFFFFFFFFFFF86
:10ED5000FFFF052004E0FFFFFFFFFFFFFFFFFFFFB6
:10ED6000056004E0FFFFFFFFFFFFFFFF05E007E096
:10ED700007E007E007E007E007E007E007E007E05B
:10ED800007E007E0000000000000000000000000B5
:10ED90000000000000000000000000000000000073
:10EDA0000000000000000000000000000000000063
:10EDB0000000000000000000000000000000000053
:10EDC0000000000000000000000000000000000043
:10EDD0000000000000000000000000000000000033
:10EDE0000000000000000000000000000000000023
:10EDF0000000000000000000000000000000000013
:10EE00000000000000000000000000000000000002
:10EE1000000000000000000007FF07FF1FFF1FFFAA
