:020000040800F2
:10000000C0160020F1100008490400084B04000845
:100010004F040008530400085704000800000000C3
:100020000000000000000000000000005B04000869
:100030005D040008000000005F040008610400087F
:100040000B1100080B1100080B1100080B11000820
:100050000B1100080B1100080B1100080B11000810
:100060000B1100080B1100080B1100080B11000800
:100070000B1100080B1100080B1100080B110008F0
:100080000B1100080B1100080B1100080B110008E0
:100090000B1100080B1100080B1100080B110008D0
:1000A0000B1100080B1100080B1100080B110008C0
:1000B0000B1100080B1100080B1100080B110008B0
:1000C0000B1100080B1100080B1100080B110008A0
:1000D0000B110008651000080B1100080B11000837
:1000E0000B1100080B1100080B1100080B11000880
:1000F0000B1100080B1100080B1100080B11000870
:100100000B1100080B1100080B1100080B1100085F
:100110000B1100080B1100080B1100080B1100084F
:100120000B1100080B1100080B1100080B1100083F
:1001300000F002F800F067F80AA090E8000C824492
:100140008344AAF10107DA4501D100F05CF8AFF26F
:10015000090EBAE80F0013F0010F18BFFB1A43F0A5
:10016000010318471C0102003C0102000A444FF041
:10017000000C10F8013B13F0070408BF10F8014B06
:100180001D1108BF10F8015B641E05D010F8016B4B
:10019000641E01F8016BF9D113F0080F1EBF10F8AF
:1001A000014BAD1C0C1B09D16D1E58BF01F801CBD2
:1001B000FAD505E014F8016B01F8016B6D1EF9D555
:1001C0009142D6D37047000000230024002500266A
:1001D000103A28BF78C1FBD8520728BF30C148BFAA
:1001E0000B607047662903F00784002070471FB535
:1001F00002F0ACFA04000020002102F0F9FFE060F8
:100200001FBD10B510BD02F0A1FB1146FFF7EFFFB7
:1002100000F008F802F0BFFB03B4FFF7F2FF03BCE5
:1002200000F000FF0EB500BF4FF0000A00F08AFE9C
:1002300000F0F2FE00F05EFE4FF4E13000F000FF4F
:1002400000F0E4FD00F064FA4FF6FF7000F054FB9C
:100250004FF6FF704F49086000234FA20A21082083
:1002600000F0FBFC00202723F0221E21009000F06C
:10027000A2FB40F2CF1350A228210A2000F0EDFC8F
:1002800040F2CF134FA23C210A2000F0E6FC40F2DE
:10029000CF1351A250210A2000F0DFFC00206D2373
:1002A000F0226421009000F086FB4FF478434FA2C7
:1002B00076210A2000F0D1FC00209523F0228C2129
:1002C000009000F078FB00234DA2AA210A2000F044
:1002D000C4FC0020D123F022C821009000F06BFB69
:1002E0001F234DA2DC210A2000F0B7FC1F234DA2E2
:1002F000DC218C2000F0B1FC4AE00A210B2000F048
:10030000DEFD044603F098FA82464949504603F060
:10031000A7FA8246504603F043FA044622460B46AB
:1003200044A101A801F01EFF1F2301AADC213220F5
:1003300000F093FC0A21084600F0C1FD044603F0DA
:100340007BFA8246504603F02BFA80464FF0663225
:100350003A4B03F03BF90646394A3A4B03F038F87A
:10036000044602F05BFF8246504603F019FA044649
:1003700022460B462FA101A801F0F4FE1F2301AA7B
:10038000DC21B42000F069FC4FF4967000F017FEF9
:10039000B3E70000740300202D2D2D2D2D2D2D2DC4
:1003A0002D424C4432352D3234474E2D2D2D2D2DDE
:1003B0002D2D2D2D2D00000048414C4C20202020BB
:1003C000203A20004D41582053504545443A2020C2
:1003D00020202052504D00004D4158205741545488
:1003E000203A20202020205720200000544553543C
:1003F00009202020203A2020202020212121000037
:1004000050726573732053573220746F2053746198
:100410007274205465737400564F4C543A20202057
:1004200020205600435552523A20202020204100DF
:100430000000304125322E33660000006666FA3F28
:100440004C37894160E5C03F704700BFFEE700BF01
:10045000FEE700BFFEE700BFFEE77047704770474A
:10046000704700000CB50020019000906C480068B7
:1004700040F480306A49086000BF6948006800F4B1
:10048000003000900198401C0190009818B9019824
:10049000B0F5A06FF1D16248006800F4003010B1EF
:1004A0000120009001E0002000900098012843D135
:1004B0005C48006840F010005A490860084600682F
:1004C00020F0030008600846006840F00200086061
:1004D00053484068524948600846406848600846AA
:1004E000406840F4806048600846406820F47C1012
:1004F00048600846406840F4E810486008460068D4
:1005000040F08070086000BF4548006800F000704F
:100510000028F9D04248406820F003004049486074
:100520000846406840F00200486000BF3C48406810
:1005300000F00C000828F9D10CBD10B5FFF792FFB0
:1005400010BD10B53648006840F00100344908601D
:100550000846406834490840314948600846006808
:10056000324908402E4908600846006820F480207F
:1005700008600846406820F4FE0048604FF41F0001
:100580008860FFF7DAFF4FF000602949086010BD6E
:1005900010B5002100200022214B5B6803F00C0104
:1005A00021B1042906D0082928D107E0214B224C8B
:1005B000236027E01F4B204C236023E0184B5B682F
:1005C00003F47010164B5B6803F48032022303EBD4
:1005D000904022B9194B4343174C23600DE0104B58
:1005E0005B6803F4003323B1144B4343124C236084
:1005F00003E0104B4343104C236003E00D4B0E4CC3
:10060000236000BF00BF064B5B68C3F303130C4CB1
:10061000E15C094B1B68CB40074C236010BD000018
:1006200000100240002002400000FFF8FFFFF6FE2D
:1006300008ED00E000127A000000002000093D00F3
:100640000400002070B504461021FB4800F0EDFEC8
:10065000002517E00121F84800F0E7FE04F08000D3
:1006600020B10221F44800F0DEFE03E00221F2484E
:1006700000F0DBFE0121F04800F0D5FE6006040E1C
:10068000681CC5B2082DE5DB1021EB4800F0CBFE5D
:1006900070BD10B504460821E74800F0C4FE2046AE
:1006A000FFF7D0FF10BD10B504460821E24800F066
:1006B000BAFEC4F30720FFF7C5FFE0B2FFF7C2FFA1
:1006C00010BD10B504460821DB4800F0AEFE204600
:1006D000FFF7B8FF10BD2DE9F04107460C4615465F
:1006E0001E462A20FFF7EDFF3846FFF7DCFF2846BD
:1006F000FFF7D9FF2B20FFF7E4FF2046FFF7D3FFDA
:100700003046FFF7D0FF2C20FFF7DBFFBDE8F0817C
:1007100008B50121152001F095F80121C74800F026
:10072000A6FE5F20ADF8000010208DF80300032026
:100730008DF802006946C04800F0C8FD5F21BE4840
:1007400000F071FE4FF40070ADF8000010208DF83D
:10075000030003208DF802006946B94800F0B6FD99
:100760004FF40071B64800F060FE0421B24800F07A
:100770005CFE142000F023FC0421AF4800F053FE7F
:10078000142000F01CFC4021AB4800F04CFE362049
:10079000FFF797FF0020FFF77CFF3A20FFF791FF5C
:1007A0000520FFF776FFB220FFF78BFF0C20FFF745
:1007B00070FF0C20FFF76DFF0020FFF76AFF33206A
:1007C000FFF767FF3320FFF764FFB720FFF779FFDC
:1007D0003520FFF75EFFBB20FFF773FF3720FFF7E1
:1007E00058FFC020FFF76DFF2C20FFF752FFC220FB
:1007F000FFF767FF0120FFF74CFFC320FFF761FF02
:100800001220FFF746FFC420FFF75BFF2020FFF711
:1008100040FFC620FFF755FF0F20FFF73AFFD0201B
:10082000FFF74FFFA420FFF734FFA120FFF731FFB0
:10083000E020FFF746FFD020FFF72BFF0420FFF753
:1008400028FF0D20FFF725FF1120FFF722FF1320BF
:10085000FFF71FFF2B20FFF71CFF3F20FFF719FFBB
:100860005420FFF716FF4C20FFF713FF1820FFF767
:1008700010FF0D20FFF70DFF0B20FFF70AFF1F20D1
:10088000FFF707FF2320FFF704FFE120FFF719FF21
:10089000D020FFF7FEFE0420FFF7FBFE0C20FFF741
:1008A000F8FE1120FFF7F5FE1320FFF7F2FE2C20D3
:1008B000FFF7EFFE3F20FFF7ECFE4420FFF7E9FED5
:1008C0005120FFF7E6FE2F20FFF7E3FE1F20FFF782
:1008D000E0FE1F20FFF7DDFE2020FFF7DAFE2320D9
:1008E000FFF7D7FE2120FFF7ECFE1120FFF7E9FE0E
:1008F0002920FFF7E6FE08BD70B50646EF231A462D
:1009000000210846FFF7E7FE002408E0002503E089
:100910003046FFF7C8FE6D1CF02DF9D3641CF02C97
:10092000F4D370BD2DE9F05F81468A4693461C469C
:10093000102C00D1434D202C00D1434D0AEB040074
:10094000431E09EB0400421E51464846FFF7C3FE12
:1009500004FB04F0C11700EB5171C1F3C7080BFB96
:100960000855002715E000260EE028780121B14047
:10097000084018B10A98FFF796FE03E03348006874
:10098000FFF791FE701CC6B2082EEEDB6D1C781CC2
:10099000C7B24745E7DBBDE8F09F70B504460D469A
:1009A00016462B46224629462046FFF794FE30463F
:1009B000FFF779FE70BD2DE9F04704460D46164657
:1009C0001F46DDF820A03B46324629462046FFF769
:1009D00082FEA8460AE0A14604E05046FFF763FE07
:1009E00009F10109B145F8D908F10108B845F2D972
:1009F000BDE8F087F8B504460D461646691E601E30
:100A00006B1C621C0096FFF7D6FFF8BD2DE9FF4F67
:100A100085B081468A460020039083460798A0EB64
:100A200009040898A0EB0A06CDF80890CDF804A0B8
:100A3000002C0DDD012711E000080140000230000C
:100A400000100140940200201400002074030020D4
:100A50000CB9002702E04FF0FF376442002E02DDA0
:100A60004FF0010806E016B94FF0000802E04FF021
:100A7000FF386642B44201DD254600E035460020DD
:100A800004901BE0129ADDE90110FFF786FF03983E
:100A900020440390B3440398A84205DD0398401B0B
:100AA0000390029838440290AB4504DDABEB050B94
:100AB0000198404401900498401C0490691C0498DB
:100AC0008842DFD309B0BDE8F08F2DE9F843054631
:100AD0000E4617469846089C33463A463146284605
:100AE0000094FFF793FF43462A4631462846009478
:100AF000FFF78CFF43463A46414628460094FFF7ED
:100B000085FF43463A46314638460094FFF77EFF5C
:100B1000BDE8F8832DE9F04706460F469046994612
:100B20000025444631E0791B301B4A46FFF735FF6C
:100B3000791B30194A46FFF730FF3919701B4A46B6
:100B4000FFF72BFF391B701B4A46FFF726FF791969
:100B500030194A46FFF721FF391B70194A46FFF743
:100B60001CFF391970194A46FFF717FF7919301B16
:100B70004A46FFF712FF6D1C05FB05F004FB04015C
:100B800008FB08F0814200DD641EA542CBDDBDE814
:100B9000F0872DE9F84F05460F4616469A46DDF8D0
:100BA00028B00095E02D01D8E02F01D9BDE8F88FDD
:100BB000A6F12000C6B207F10F03EA1D3946284608
:100BC000FFF789FDBAF1000F25D1002420E004EBE6
:100BD00006108A4911F800904FF0000811E009F062
:100BE000010018B15846FFF75EFD03E08448006835
:100BF000FFF759FD4FEA69096D1C08F1010000F08B
:100C0000FF08B8F1080FEADB009D7F1C601CC4B22E
:100C1000102CDCDB1FE000241BE004EB06107749FE
:100C200011F800904FF000080EE009F0010028B123
:100C3000391905EB08005A46FFF7AFFE4FEA69097C
:100C400008F1010000F0FF08B8F1080FEDDB601CAF
:100C5000C4B2102CE1DB00BFA8E7F8B505460E468C
:100C600014461F4615E0E02D01D900251036E02E70
:100C700006D90020054606464FF47840FFF73CFEB3
:100C800000972278002331462846FFF782FF083577
:100C9000641C20780028E6D1F8BD10B5024601207A
:100CA00000E050430B1EA1F10104E1B2F9D110BDE7
:100CB0002DE9F84F06468A4690461D46DDF82890F5
:100CC0004FF0000B00242FE0281B401EC1B20A2069
:100CD000FFF7E3FFB8FBF0F00A21B0FBF1F201FBF4
:100CE0001207BBF1000F10D1681EA0420DDD57B9ED
:100CF000082101FB0460002320225146CDF800901A
:100D0000FFF747FF0EE04FF0010B07F13001CAB2C9
:100D1000082101FB046000235146CDF80090FFF745
:100D200038FF00BF601CC4B2AC42CDDBBDE8F88F19
:100D30002DE9FC5F06468A4617461C46DDF83080E2
:100D4000002001902F49384602F08AFD009002F001
:100D500053FD834600252CE0601B401EC1B20A20D3
:100D6000FFF79BFFBBFBF0F00A21B0FBF1F201FBA8
:100D70001209A01EA8420ED1A11E082202FB01608A
:100D800000232E225146CDF80080FFF702FF681C99
:100D9000C5B2601CC4B209F13001CAB2082101FB1E
:100DA000056000235146CDF80080FFF7F2FE681C75
:100DB000C5B2A542D0DBBDE8FC9F2DE9F041054658
:100DC0000E461746984643463A4631462846FFF7B0
:100DD00082FC00240CE0012101EB44010A4A505C32
:100DE000FFF757FC084911F81400FFF752FC641C88
:100DF000B4F5614FEFDBBDE8F0810000FC3900087D
:100E0000740300200000C842EC3F000800B587B022
:100E100001214FF4047000F015FD4FF4004000F084
:100E200075FC0320ADF8040000208DF8070001A92F
:100E30002E4800F04BFA2E4800F06CFF0020029084
:100E40008DF80C008DF80D004FF460200490002008
:100E5000059001208DF8180002A9254800F081FFB7
:100E60000121234800F0A9FF214800F0C8FF00BF7E
:100E70001F4800F0C9FF0028FAD11D4800F0CEFF3E
:100E800000BF1B4800F0CFFF0028FAD107B000BD1B
:100E900010B50446072301222146154800F0F9FF4A
:100EA0000121134800F0C9FF00BF0221104801F0E2
:100EB00035F90028F9D00E4801F052F810BD2DE99F
:100EC000F04107460C460025002608E03846FFF7AB
:100ED000DFFF0544052000F072F8701CC6B2A64280
:100EE000F4DBB5FBF4F080B2BDE8F0810010014006
:100EF0000024014008B50121242000F0A3FC4FF498
:100F00008070ADF8000010208DF8030003208DF8EC
:100F100002006946094800F0D9F94FF4807107488A
:100F200000F081FA0420ADF800006946044800F0A2
:100F3000CDF90421024800F076FA08BD000801400E
:100F40000014014010B56FF0040000F040F92E4885
:100F500000682E49B0FBF1F02D4908700846007872
:100F600000EB4001C1EBC0104FF6FF7101EAC00079
:100F70002849088010BD0146254A12784A434FF09F
:100F8000E0235A6100229A611A46126942F0010276
:100F90001A6100BF4FF0E022106900F001021AB19F
:100FA00000F48032002AF5D04FF0E022126922F0DE
:100FB00001024FF0E0231A6100229A617047014656
:100FC000144A12884A434FF0E0235A6100229A6182
:100FD0001A46126942F001021A6100BF4FF0E02286
:100FE000106900F001021AB100F48032002AF5D035
:100FF0004FF0E022126922F001024FF0E0231A6163
:1010000000229A61704700000000002000127A0060
:10101000780300207A03002010B54FF4A06000F0A0
:1010200087F810BD00BF704700BF2D4A128802F03C
:101030004002002AF9D0C2B2294B1B1D1A8070470A
:1010400038B504460121042000F0FCFB4FF4806019
:10105000ADF8000000208DF803006946214800F03B
:1010600035F938BD10B540F225511D4800F00EFE8F
:1010700010B31B4800F08AFDC4B21B48008800F47E
:101080000040C8B91848008800F4804060B10A2CBC
:1010900003D000201449088020E01348008840F461
:1010A00000401149088019E00D2C06D10E48008837
:1010B00040F480400C49088010E00B480088C0F3E1
:1010C0000D000A490C5408480088401C0649088055
:1010D00008460088C72801DD0020088010BD0000F8
:1010E00000380140000801408003002098030020E0
:1010F0000948804709480047FEE7FEE7FEE7FEE7AC
:10110000FEE7FEE7FEE7FEE7FEE7FEE704480549E7
:10111000054A064B704700004305000831010008EE
:10112000C0040020C0160020C0060020C006002019
:1011300031490143314A1160704770B500210023E5
:101140000F22C47804B32D4C246804F4E064C4F581
:10115000E064210AC1F10403CA40447804FA03F1AF
:101160008478144021430901254C0678A155047860
:1011700004F01F050124AC4005786D11AD0005F1A8
:10118000E025C5F8004109E0047804F01F050124BA
:10119000AC401C4D0678761145F8264070BD1A4AC1
:1011A0000A400243154B1B1F1A60704739B1134A9E
:1011B000121D12680243114B1B1D1A6006E00F4AF4
:1011C000121D126882430D4B1B1D1A6070470428C4
:1011D00008D14FF0E021096941F004014FF0E0220D
:1011E000116107E04FF0E021096921F004014FF09F
:1011F000E0221161704700000000FA050CED00E0EC
:1012000000E400E080E100E080FFFF1F10B504462D
:10121000CC48844208D10121042000F02DFB00219C
:10122000042000F029FB46E0C748844208D1012190
:10123000082000F021FB0021082000F01DFB3AE00F
:10124000C248844208D10121102000F015FB002182
:10125000102000F011FB2EE0BD48844208D101218E
:10126000202000F009FB0021202000F005FB22E0F7
:10127000B848844208D10121402000F0FDFA002145
:10128000402000F0F9FA16E0B348844208D1012169
:10129000802000F0F1FA0021802000F0EDFA0AE051
:1012A000AE48844207D10121801500F0E5FA002103
:1012B000A01500F0E1FA10BD10B50121084600F0BC
:1012C000DBFA0021012000F0D7FA10BD2DE9F04132
:1012D000024600250026002000230024002791F864
:1012E00003C00CF00F0591F803C00CF0100CBCF11A
:1012F000000F03D091F802C04CEA050591F800C038
:10130000BCF1000F31D0146800202BE04FF0010C2D
:101310000CFA00F3B1F800C00CEA03069E4220D19B
:1013200083004FF00F0C0CFA03F7BC4305FA03FCE3
:101330004CEA040491F803C0BCF1280F06D14FF029
:10134000010C0CFA00FCC2F814C00AE091F803C0CA
:10135000BCF1480F05D14FF0010C0CFA00FCC2F8AB
:1013600010C0401C0828D1D31460B1F800C0BCF1F3
:10137000FF0F34DD546800202EE000F1080C4FF020
:10138000010808FA0CF3B1F800C00CEA03069E420B
:1013900021D183004FF00F0C0CFA03F7BC4305FA80
:1013A00003FC4CEA040491F803C0BCF1280F05D1FA
:1013B00000F1080C08FA0CF8C2F8148091F803C088
:1013C000BCF1480F07D100F1080C4FF0010808FAF2
:1013D0000CF8C2F81080401C0828CED35460BDE839
:1013E000F0814FF6FF710180022181700421C170EC
:1013F00070470246002093680B400BB1012000E0CB
:10140000002070470146886880B27047024600207D
:10141000D3680B400BB1012000E00020704701466B
:10142000C86880B2704701617047416170470AB176
:10143000016100E041617047C16070474FF4803244
:101440000A438261816182618269826970470246D2
:101450000020434B18684FF68073184040EA021092
:1014600008433F4B186070473E49C8617047F0B56C
:101470000A46002300240021002500F00046B6F1B2
:10148000004F02D1364EF16901E0354E7168C0F36C
:10149000034583B200F44016B6F5401F08D121F091
:1014A00070612F4E766826F070662D4F7E6012E0D8
:1014B00000F48016B6F5801F06D1032606FA05F45F
:1014C000A14341F0706106E0460D360103FA06F6CD
:1014D000B14341F0706122B1460D360103FA06F6C0
:1014E000314300F00046B6F1004F02D11C4EF161CD
:1014F00001E01B4E7160F0BD30B500228B071C0F60
:101500000F2303FA04F2164B08338C1053F82430DF
:101510009343134C08348D1044F8253023468C1027
:1015200053F824308C07240F00FA04F423430C4CA6
:1015300008348D1044F8253030BD0A49DC3108608C
:101540007047000000080140000C014000100140FD
:101550000014014000180140001C0140002001401F
:101560000000014000002042DF48006840F0010018
:10157000DD49086008464068DC490840DA494860AF
:1015800008460068DA490840D749086008460068FC
:1015900020F4802008600846406820F4FE0048607F
:1015A0004FF41F0088607047CF49096821F48031EB
:1015B000CD4A11601146096821F480211160B0F50F
:1015C000803F03D0B0F5802F0ED106E0C6490968F0
:1015D00041F48031C44A116007E0C349096841F40D
:1015E000A021C14A116000E000BF00BF704710B5E4
:1015F00001460022002300204A11012A02D1BA4CE0
:10160000236806E0022A02D1B74C236A01E0B64CF7
:10161000636A01F01F02012494401C400CB10120B8
:1016200000E0002010BD38B5002000900024002507
:1016300000BF3120FFF7DBFF05460098401C0090FB
:101640000098B0F5A06F01D0002DF2D03120FFF747
:10165000CEFF08B1012400E00024204638BD014639
:101660000020A14A106820F0F80040EAC100106094
:101670007047A04908607047024600209A4B58689E
:1016800020F47C1042EA01031843974B58607047DE
:1016900098490866704701460020934A506820F038
:1016A00003000843506070478F48406800F00C000A
:1016B0007047014600208C4A506820F0F000084333
:1016C0005060704701460020874A506820F4E0606F
:1016D00008435060704701460020834A506820F458
:1016E000605040EAC1005060704729B17E4A527A8A
:1016F00002437D4B5A7204E07B4A527A82437A4B12
:101700005A7270477B49D831086070470146002003
:10171000754A506820F440400843506070470021EB
:10172000714A20321170704A82F82010012802D0CC
:1017300004280AD104E001216B4A2032117005E02F
:101740000521694A2032117000E000BF00BF7047D8
:101750006949086070476449096A0143624A116235
:101760007047654944390860704730B50021002250
:10177000002400235C4D6D6805F00C0121B10429A3
:1017800005D0082923D105E05C4D056022E05B4DC2
:1017900005601FE0544D6D6805F47012524D6D6880
:1017A00005F48034022505EB92421CB9544D554393
:1017B00005600BE04C4D6D6805F400351DB1504DD2
:1017C0005543056002E04D4D5543056002E04B4D29
:1017D000056000BF00BF444D6D6805F0F0010909C8
:1017E000484D6B5C0568DD4045603F4D6D6805F414
:1017F000E061090A434D6B5C4568DD4085603A4D08
:101800006D6805F46051C90A3E4D6B5C4568DD406A
:10181000C560354D6D6805F44041890B3A4D6B5CF0
:10182000C568B5FBF3F5056130BD29B12E4A526993
:1018300002432D4B5A6104E02B4A526982432A4BE2
:101840005A61704729B1284A92690243264B9A612E
:1018500004E0254A92698243234B9A61704729B17B
:10186000214AD2690243204BDA6104E01E4AD26960
:1018700082431D4BDA61704729B11B4AD26802438B
:10188000194BDA6004E0184AD2688243164BDA60DA
:10189000704729B1144A12690243134B1A6104E0DC
:1018A000114A12698243104B1A617047124940393C
:1018B000086070470F49C86470470B49C87170478A
:1018C0000948406A40F08070074948627047014605
:1018D0000020054A92680A400AB1012000E0002079
:1018E0007047014988727047001002400000FFF8FD
:1018F000FFFFF6FE000042428004424200127A00DE
:1019000000093D00820300209203002010B5044628
:10191000FB48844209D101218803FFF7ADFF002174
:101920004FF48040FFF7A8FF32E0F648844209D127
:1019300001214804FFF7ADFF00214FF40030FFF70D
:10194000A8FF25E0F048844209D101218804FFF76F
:10195000A0FF00214FF48020FFF79BFF18E0EB4829
:10196000844209D10121C804FFF793FF00214FF4FD
:101970000020FFF78EFF0BE0E548844208D10121EB
:101980000805FFF786FF00214FF48010FFF781FF65
:1019900010BD2DE9F04786B005460E460024A2464C
:1019A00000BFA1460027B08900B100BF2F462C8A96
:1019B0004CF6FF700440F08804432C82AC894EF64C
:1019C000F3100440B0883189084371890843044307
:1019D000AC81AC8A4FF6FF400440B0890443AC822E
:1019E00001A8FFF7C2FEC648874202D1DDF810A069
:1019F00001E0DDF80CA0A88900F4004040B10AEB3A
:101A0000CA0000EB0A1031684900B0FBF1F807E0AA
:101A10000AEBCA0000EB0A1031688900B0FBF1F84C
:101A20006420B8FBF0F004012009642101FB108957
:101A3000A88900F4004040B1322000EBC900B0FB9F
:101A4000F1F000F00700044308E0322000EB091039
:101A50006421B0FBF1F000F00F0004432C8106B0CC
:101A6000BDE8F0874FF41651016000218180C180EC
:101A700001810C21418100218181704710B502460E
:101A80000020108A4FF2FF0318400B884C88234334
:101A90008C882343CC8823431843108210BD002137
:101AA000018041808180C180704721B1828942F4E8
:101AB0000052828104E082894DF6FF731A408281D0
:101AC0007047F0B50346002400260025002040F6AC
:101AD0006A17B94200D100BF1846C1F3421401F0A1
:101AE0001F06012707FA06F5012C01D10C3004E08E
:101AF000022C01D1103000E014301AB107682F43D6
:101B0000076002E00768AF430760F0BD1AB1838A3F
:101B10000B43838202E0838A8B4383827047028A6D
:101B20004FF6F0731A400282028A0A43028270471B
:101B300082894FF2FF731A40828182890A4382812F
:101B4000704721B1828942F00202828104E08289D9
:101B50004FF6FD731A4082817047028A4FF6DF7399
:101B60001A400282028A0A430282704721B1028A25
:101B700042F48042028204E0028A4BF6FF731A406C
:101B800002827047C1F3080282807047014688884C
:101B9000C0F308007047818941F0010181817047DD
:101BA000028BD2B20283028B42EA01220283704787
:101BB000028B02F47F420283028B0A430283704746
:101BC00021B1828A42F02002828204E0828A4FF6AA
:101BD000DF731A408282704721B1828A42F010027C
:101BE000828204E0828A4FF6EF731A408282704745
:101BF00021B1828A42F00802828204E0828A4FF692
:101C0000F7731A408282704721B1828942F4004200
:101C1000828103E08289C2F30E028281704721B182
:101C2000828A42F40062828204E0828A4FF2FF7369
:101C30001A4082827047828A4FF6FB731A40828272
:101C4000828A0A438282704721B1828A42F002026C
:101C5000828204E0828A4FF6FD731A4082827047C6
:101C600002460020B1F5007F00D100BF13880B4071
:101C70000BB1012000E00020704701F40072B2F5C2
:101C8000007F00D100BFCA430280704770B5024692
:101C9000002400230025002040F66A16B14200D13E
:101CA00000BFC1F3421501F01F03012606FA03F33A
:101CB000012D02D19689334006E0022D02D1168A09
:101CC000334001E0968A33400C12012606FA04F4F0
:101CD0001688344013B10CB1012000E0002070BD23
:101CE00010B50022002340F66A14A14200D100BFC3
:101CF0000A1201249440A3B2DC43048010BD00000A
:101D0000003801400044004000480040004C0040C2
:101D10000050004010B50446FA48844208D1012121
:101D20004015FFF7A9FD00216015FFF7A5FD17E09D
:101D3000F548844208D101210015FFF79DFD0021DF
:101D40002015FFF799FD0BE0F048844208D10121EE
:101D5000C803FFF791FD00214FF40040FFF78CFD11
:101D600010BD30B50246002000235068E84C2040EA
:101D70000D790C6844EA0524204350609068E54CD6
:101D80002040D1E902542C434D7944EA45042043D4
:101D90009060D06A20F470000C7C641EE4B223438F
:101DA00040EA0350D06230BD0021016001714171F1
:101DB0008160C16001210174704721B1826842F0E5
:101DC0000102826003E0826822F0010282607047B3
:101DD00021B1826842F48072826003E0826822F45A
:101DE00080728260704710B50023CBB21AB144688C
:101DF0001C43446002E044689C43446010BD816819
:101E000041F0080181607047014600208A6802F0B5
:101E100008020AB1012000E000207047816841F00B
:101E2000040181607047014600208A6802F00402C4
:101E30000AB1012000E00020704721B1826842F41D
:101E4000A002826003E0826822F4A00282607047F0
:101E5000014600208A6802F480020AB1012000E0F5
:101E60000020704710B50A4600210023416821F484
:101E70006041531E41EA4331416010BD21B14268C7
:101E800042F40062426003E0426822F40062426071
:101E90007047F0B504460D4600200021092D11DDE4
:101EA000E068A5F10A0606EB4607072606FA07F1E1
:101EB0008843A5F10A0606EB460603FA06F1084335
:101EC000E0600CE0206905EB4507072606FA07F1FC
:101ED000884305EB450603FA06F108432061072A0B
:101EE0000FDA606B561E06EB86071F2606FA07F10F
:101EF0008843561E06EB860605FA06F10843606322
:101F000022E00D2A0FDA206BD61F06EB86071F266C
:101F100006FA07F18843D61F06EB860605FA06F196
:101F20000843206310E0E06AA2F10D0606EB860785
:101F30001F2606FA07F18843A2F10D0606EB860676
:101F400005FA06F10843E062F0BD21B1826842F46F
:101F50008012826003E0826822F4801282607047FF
:101F60000146C86C80B2704766484C3000687047C4
:101F700021B1426842F48062426003E0426822F488
:101F800080624260704721B1426842F480524260F0
:101F900003E0426822F48052426070470A46002102
:101FA000816821F4E04111438160704721B182686A
:101FB00042F40042826003E0826822F400428260C0
:101FC000704721B1826842F40212826003E08268A5
:101FD00022F4021282607047014600208A6802F4EF
:101FE00000120AB1012000E000207047F0B504465D
:101FF0001546002000220026092911DDE068A1F124
:102000000A0707EB470C072707FA0CF29043A1F1E8
:102010000A0707EB470703FA07F21043E0600CE0FA
:10202000206901EB410C072707FA0CF2904301EB02
:10203000410703FA07F210432061A06BC0F3015679
:10204000EF1C06F1010CA7EB0C0707EB870C1F2711
:1020500007FA0CF29043EF1C06F1010CA7EB0C07FA
:1020600007EB870701FA07F21043A063F0BD10B534
:102070000A4600210023816B21F44011531E41EADE
:102080000351816310BD08B5002300930090009BAD
:102090000B440093009B1A6008BD08B5024600205F
:1020A0000090009201F12800009B184400900098D5
:1020B000006880B208BD0A4600214168164B1940ED
:1020C0001143416070474162826270470A460021B5
:1020D000416821F01F0111434160704740B1094937
:1020E0000831096841F40001064A0832116007E02E
:1020F00004490831096821F40001024A08321160DC
:10210000704700000024014000280140003C0140CD
:10211000FFFEF0FFFDF7F1FFFFFD3FFF024600204D
:1021200013680B400BB1012000E000207047CA4348
:102130000260704770B502460020002300240B1295
:102140005568CEB205EA060415681D4015B10CB1FC
:10215000012000E0002070BD00220A12D34303607A
:10216000704770470FB41CB5074B06AA7B446946FD
:102170000090059800F0D1FA0020694600F0E0FADE
:102180001CBC5DF814FB0000D105000070B50446CE
:1021900085690068C10601D5302600E02026C00709
:1021A00007D070BDD4E9012130469047206A401C19
:1021B00020626D1EF6D570BD70B504468569007845
:1021C000C00707D170BDD4E9012120209047206AC3
:1021D000401C20626D1EF6D570BD2DE9F0474FF012
:1021E000000A89460446C0F820A02046E1688847D6
:1021F000002876D0252806D0D4E901219047206A0E
:10220000401C2062F1E7E168204600258847C4F8B9
:102210001CA006460027C4F818A02A2E09D0304674
:1022200000F0DEFF38B304EB8708303EC8F81860D2
:1022300019E059F8041B204604EB87029161E1681C
:102240008847012F064618D1E069002820DA25F0DA
:1022500020051DE0D8F8180000EB800006EB4000D8
:102260003038C8F818002046E1688847064600F074
:10227000B7FF0028EED1012F0AD02E2E08D120461C
:10228000E16888477F1C0646022F45F02005C4DB25
:10229000A069002803DA404245F00105A061E80783
:1022A00001D025F01005B6B1A6F14100192802D8D9
:1022B000203645F400654A463146204625604D46A5
:1022C000FDF790FF58B1012806D0ED1D25F007005D
:1022D00000F1080989E704E005F1040985E73046C3
:1022E0008AE7206ABDE8F0877047704770477047FB
:1022F00070472DE9FF4F0C461E464FF0FF378BB05D
:10230000D2E90001DDF860800A908A46C1F30A55DF
:1023100005B93D46002108464FF00000BAF1000F14
:1023200000F4400005DA00EB80004FF4400101EAC0
:1023300050004FEA9059B9F1010F00DDB9460A98F3
:1023400050EA4A000ED044F61050A5F2FF3545433E
:102350002F14B8F1000F1ED07542291E1EDDC9F1E1
:1023600000021CE0B8F1010F4FF0000001D0302155
:1023700003E0F24305E02154401CB042FBDB304651
:102380000022002121540B99C1F80880C1E90020E6
:102390000FB0BDE8F08FBD1B6D1CDEE74A4600DACA
:1023A000694206A800F05CFA06AB93E8070003ABAD
:1023B00083E8070050460A9900F036FB8DE80700D5
:1023C000A0F500501F3800900398002D0ADD42F25E
:1023D0001F014A460844002303A90390684600F001
:1023E0009FFD09E0A0F500504A461F38002303A9CD
:1023F0000390684600F0A9FD8DE807000004000C7A
:1024000003D04FF0FF30410800E01046B8F1000F54
:1024100003D00022009215461EE0751E05D400F080
:1024200099F9303262556D1EF9D5B3460122084341
:1024300002D000227F1C04E02078302801D1002245
:102440007F1E002A099784D01DE0112D07DA00F0C5
:1024500081F9303262556D1C50EA0102F5D1084312
:1024600002D00098C8B10EE00021681E05E0235C90
:10247000625C63542254401E491C8142F7DBAB4628
:10248000A81B401E0990002004F80B000B98099A25
:10249000C0F80880C0E9002B7AE711264FF0000849
:1024A00057E72DE9F04F88460446D21D22F0070178
:1024B00091B0D1E90001CDE90A0100F07DFE0246AC
:1024C0000B98C00F01D02D2007E02068810701D5AF
:1024D0002B2002E0202101EAC000032A099001D04C
:1024E000072A05DB03464146204600F079F90BE157
:1024F0002078800601D5E06900E00620B8F1650F7C
:10250000814606D0B8F1660F18D0B8F1670F70D1C8
:1025100031E00020B9F1110F009001DB112301E03F
:1025200009F101030AAA01A90CA8FFF7E2FEDDE9FF
:102530000C70002609F10105834647E001204B4657
:1025400000904FF000470AAA01A90CA8FFF7D1FE9E
:10255000DDE90DB00C995D46002610B909F10100C6
:102560000D18B9EB050003D4C0F1FF3609F10105E0
:10257000A5EB09002BE0B9F1010F01DA4FF00109D9
:102580000020B9F1110F0090484601DD112300E051
:1025900003460AAA01A90CA8FFF7ABFEDDE90C70FF
:1025A0004D4600268346207800070AD4AB4500DA62
:1025B0005D4601A8012D04DD411911F8011C3029E7
:1025C00007D04F4502DA17F1040F04DA01208246E2
:1025D0000FE06D1EEEE7002F02DCED1B3E4403E032
:1025E000781CA84200DD7D1CB81B00F1010A4FF0E9
:1025F00000472078000703D4AA4501DB4FF0FF3ADB
:102600000021B7F1004F0DF143088DF8431024D09D
:1026100002202B23002F01DA7F422D230A21021EE4
:10262000A0F1010000DC5FB197FBF1FC97FBF1F238
:1026300001FB1C7C17460CF1300C08F801CDEEE7CD
:10264000A8F1010003702188090501D5452100E0AA
:102650006521A0F1010800F8011C09980FA9A1EB60
:102660000807FF1D00B10120411901EBEA70A169C3
:102670003844081A401EA0612078C00602D42046C3
:10268000FFF784FD099828B1D4E901219047206A19
:10269000401C20622078C00622D52046FFF776FD38
:1026A0001EE0002E04DBB34502DD01A8805D00E0E2
:1026B0003020D4E901219047206A401C2062761C1A
:1026C000AAF101005FEA000A0AD100F03FF8C068F1
:1026D0000168405CD4E901219047206A401C2062D7
:1026E000281EA5F10105DCDC07E0D4E9012118F87A
:1026F000010B9047206A401C2062381EA7F1010799
:10270000F3DC2046FFF758FD032011B041E600003E
:1027100001694A1C02610878704700B58FB0CDE9A5
:1027200001310021059105497944CDE90310114695
:102730006846FFF752FD0FB000BD0000E5FFFFFF48
:102740000A6802F8010B0A607047000000487047F1
:102750008004002030B5B0F10A024FEA900E71F10A
:1027600000034EEA817EB0EB0E0061EB91014FEA6F
:10277000101E4EEA017E10EB0E0041EB11114FEAE4
:10278000102E4EEA016E10EB0E0041EB11214FEAC4
:10279000104E4EEA014E10EB0E0041EB1141401875
:1027A00041F100014FEAD00040EA41704FEAD10107
:1027B00010EB80054FEA810444EA907444EB010475
:1027C0006D1944EB0404521BA3414FF0000348BFB2
:1027D0000A3200D530BD401C41F1000130BD00007F
:1027E0002DE9F0411F46044603260168072A01F43B
:1027F000006004DB08B116A505E016A503E008B1EA
:1028000015A500E015A521F010002060A069C01EEC
:10281000A0610FB1401EA0612046FFF7B7FC4FB189
:10282000D4E9012138469047206A401C2062C01C30
:10283000206206E0206AFAE7D4E9012115F8010BCD
:102840009047761EF8D22046FFF7B6FCBDE8F0812F
:102850004E414E006E616E00494E4600696E660044
:102860002DE9F047814616468AB0354878440DC8B0
:102870008DE80D0032487844801C03AC0DC884E814
:102880000D0041F69B300844372190FBF1F290FB9C
:10289000F1F5A5F1800501FB12041B3C02D5644251
:1028A000012000E00020DFF898A080460027FA44CD
:1028B000AAF1BE0A0EE0E0070AD03246684607EBEE
:1028C000470101230AEB810100F03FFB8DE807007F
:1028D00064107F1C002CEED1194F7F44AE3F19E0ED
:1028E000E80715D007EB04100DF1180A90E80E0068
:1028F0008AE80E00C068F04201D19819089032466B
:10290000012306A903A800F020FB03AB83E807001E
:102910006D10641C002DE3D14FF00103324669466F
:10292000B8F1000F03A802D000F0FAFA01E000F0BD
:102930000CFBC9E90001C9F808200AB0BDE8F0871E
:10294000F8D9010000487047600400207546FFF781
:10295000F9FFAE4605006946534620F0070085465C
:1029600018B020B5FEF7D2FBBDE820404FF00006BE
:102970004FF000074FF000084FF0000B21F0070167
:10298000AC46ACE8C009ACE8C009ACE8C009ACE8AA
:10299000C0098D46704710B50446AFF3008020464D
:1029A000BDE81040FDF738BC4FF0013C50F8042B57
:1029B00051F8043B9A4221D1A2EB0C03934313EA52
:1029C000CC1317D150F8042B51F8043B9A4215D17F
:1029D000A2EB0C03934313EACC130BD150F8042B56
:1029E00051F8043B9A4209D1A2EB0C03934313EA3A
:1029F000CC13DBD04FF00000704700BFD01A01BAF3
:102A0000B1FA81F101F0180122FA01F0CB40C1F1D5
:102A10002001DBB2C0B2C01A2CFA01F3D11A9143E3
:102A200011EAC311E6D170475FEA400C08BF91F08C
:102A3000000F4FEA8C234FEAC12243EA51514FEA7B
:102A40001C5018BF00F5F0404FEA300018BF41F0AD
:102A500000415FEA6C5C00F02980BCF1FF3F08BFD9
:102A600040F080407047130C06BF12044FF0100C6A
:102A70004FF0000C130E04BF12020CF1080C130FE0
:102A800004BF12010CF1040C930F04BF92000CF16F
:102A9000020CD30F04BF52000CF1010C11464FF091
:102AA0000002A0F11F00A0EB0C00704711F0004FD6
:102AB00008BF704731F000413FF4D5AF0B0C06BFA3
:102AC00009044FF0100C4FF0000C0B0E04BF09026C
:102AD0000CF1080C0B0F04BF09010CF1040C8B0F57
:102AE00004BF89000CF1020CCB0F04BF49000CF1AC
:102AF000010CCCF12003A0EB0C0022FA03F302FA44
:102B00000CF241EA030100F10100704720F07F4C14
:102B100080EA030023F07F47ACEB070303F57C5307
:102B200000F0004003F1FF032DE980494FEA154B07
:102B300009B44FEA144325EA0B4E24EA03480FF286
:102B4000042606EB132749083E785FEA320203FBAE
:102B50000667C7F5000707FB06F64FEA54374FEA4A
:102B6000D64606F1020607FB066CCCF1005C4FEA84
:102B70001C472CEA074C07FB06F40CFB06F504EB9C
:102B800015464FEA961634BF00204FF000404FEA3A
:102B9000D13706FB07FC4FEA1C4C0CFB0BF7D21B92
:102BA00003FB0CF761EB07010CFB0EF7B0EB0740E2
:102BB00072EB17420CFB08F734BFA2EB0742B2EBF3
:102BC000074261EB17414FEA0C444FEA910706FBBD
:102BD00007FC4FEA1C4C0CFB0BF7B0EBC74072EB49
:102BE000573203FB0CF734BFA2EBC742B2EBC7422C
:102BF00061EB57310CFB0EF7B0EBC70072EB57726D
:102C00000CFB08F734BFA2EBC702B2EBC70261EBC3
:102C10005771039F4FEA816141EA921104EBCC04A2
:102C20004FEAD1374FEA826206FB07FC42EA901274
:102C30004FEA80604FEA1C4C0CFB0BF7D21B03FBE6
:102C40000CF761EB07010CFB0EF7B0EB074072EBE2
:102C500017420CFB08F734BFA2EB0742B2EB074266
:102C600061EB17414FEA8C554FEA910704EB9C2426
:102C700006FB07FC4FEA1C4C0CFB0BF7B0EBC74004
:102C800072EB573203FB0CF734BFA2EBC742B2EB37
:102C9000C74261EB57310CFB0EF7B0EBC70072EB8C
:102CA00057720CFB08F734BFA2EBC702B2EBC702A6
:102CB00061EB577115EB4C254FEA816141EA9211A6
:102CC0004FEA82624FEAD13742EA901206FB07FCD4
:102CD00044F100044FEA80604FEA1C4C0CFB0BF7F8
:102CE000D21B03FB0CF761EB07010CFB0EF7B0EBFB
:102CF000074072EB17420CFB08F734BFA2EB074208
:102D0000B2EB074261EB174115EB1C154FEA81311D
:102D100041EA92414FEA823242EA90424FEA8030E1
:102D20004FEA0C7644F1000448EA03434EEA0B48AC
:102D30004FF0000EB2EB080C71EB030724BF6246A4
:102D400039464EEB0E0E4FF0000B00185241494130
:102D50004BEB0B0BB2EB080C71EB03077BF1000B99
:102D600024BF624639464EEB0E0E4FF0000B0018A2
:102D7000524149414BEB0B0BB2EB080C71EB0307D3
:102D80007BF1000B24BF624639464EEB0E0E51EA32
:102D9000020718BF46F0010616EB0E7655F1000249
:102DA00054F1000103D5BDE88901BDE80088BDE804
:102DB0008901BDE80048B619524141EB0101A3F178
:102DC0000103704780807F7E7D7C7B7A797877767F
:102DD00076757473727171706F6E6E6D6C6C6B6AF8
:102DE0006A69686867666665646463636261616096
:102DF000605F5F5E5E5D5D5C5C5B5B5A5A59595813
:102E0000585757565655555554545353525252517C
:102E1000515050504F4F4F4E4E4D4D4D4C4C4C4BD2
:102E20004B4B4A4A4A494949484848474747474619
:102E30004646454545444444444343434342424255
:102E400042414141002B9C4630D477002BD01CB529
:102E50004FEA370703B44FF010004FF01001BAF1FA
:102E6000000F06D0BCF1000FDCBF40F0080040F0BE
:102E700008014FF000000FBCBDE810400BF1010B42
:102E8000BBF1010F08BF5FEA170722BF12F1010271
:102E900011F101014FF0004143F1000300F0004047
:102EA00043EA00007047F9D35708D0E746EA0646E0
:102EB00013F1400F4FEA16461FDD13F1200FDFBF5D
:102EC00016430A46002120335B42BED0C3F12007DF
:102ED00046EA064602FA07F74FEA164646EA0706AA
:102EE000C3F1200722FA03F201FA07F721FA03F1EE
:102EF0004FF0000342EA0702A7E746EA020646EA65
:102F000006464FEA164646EA0106BCBF46EA0646B2
:102F1000360C4FF000034FF000024FF0000194E731
:102F20002DE9804C9A46934670B491E8380007C862
:102F300031EA400C48BF34EA430C03D5FFF7E6FD05
:102F4000FFF780FFF0BCBDE8008C2DE9804C9A466D
:102F5000934670B491E8380007C810F0804F08BF5E
:102F600013F0804F03D100F005F8FFF76BFFF0BCC2
:102F7000BDE8008C20F07F4780EA030023F07F4CFF
:102F800007EB0C03A3F57C5300F00040A3F1FE0314
:102F900092F0000F00F0B38095F0000F00F0778002
:102FA0002DE901494FEA11404FEA144621EA004851
:102FB00000FB06FC24EA064708FB06F607FB08F8B8
:102FC00000FB07F718EB06484CEB164C4FEA124B88
:102FD00018EB07484FEA15464CEB174022EA0B4E18
:102FE0000BFB06FC25EA06470EFB06F607FB0EFE6A
:102FF0000BFB07F71EEB064E4CEB164C4FF0000692
:103000001EEB074E4CEB174B18EB0B0840F1000082
:1030100018EB0E0B58EB000840F100008F1A4FF030
:1030200000013CBFC943661B14BFB5EB040C002173
:103030003CBFC943F61B4FEA17444EEA8E0E27EAFF
:1030400004454FEA1C4704FB07622CEA074C05FBCA
:1030500007F70CFB05F604FB0CFC16EB074642EBEE
:10306000174216EB0C4642EB1C421BEB060658EBD4
:103070000202414146EA9E0601D5BDE80189B61922
:10308000524141EB0101A3F10103BDE801894FEA7F
:1030900014454FEA114724EA054621EA074C05FB8F
:1030A00007F406FB07F70CFB06F105FB0CFC11EB24
:1030B000074144EB17444FEA124711EB0C4144EB34
:1030C0001C4422EA074C05FB07F206FB07F70CFB42
:1030D00006F605FB0CFC16EB074642EB174216EB17
:1030E0000C4642EB1C456A1854F1000148BF70477A
:1030F000B619524141EB0101A3F10103704795F06C
:10310000000F37D04FEA11424FEA144721EA024636
:1031100024EA074C02FB07F106FB07F70CFB06F459
:1031200002FB0CFC14EB074441EB17414FEA154737
:1031300014EB0C4441EB1C4125EA074C02FB07F55C
:1031400006FB07F70CFB06F602FB0CFC16EB07462A
:1031500045EB174516EB0C4645EB1C42121951F195
:10316000000148BF7047B619524141EB0101A3F17C
:10317000010370474FEA14454FEA114724EA054618
:1031800021EA074C05FB07F106FB07F70CFB06F2EB
:103190004FF0000605FB0CFC12EB074241EB174118
:1031A00012EB0C4251EB1C4148BF7047921841EBA7
:1031B0000101A3F101037047490050EAC12018BF83
:1031C00004204A0D18BF40F0010040F2FF72B2EB3C
:1031D000515F08BF40F00200012808BF052070477A
:1031E00030380A2801D201207047002070470000C3
:1031F00010B500290AD00878002807D0054878447F
:10320000FFF7D2FB002801D0002010BD024878440F
:1032100010BD0000A2D001009AD0010021F00042B0
:10322000A2F16052B2F5801F01F0004328BFD2F135
:103230007F6C0BD95FEA001C43EAC20242EB50707C
:1032400018BF704728BF20F001007047B2F5801FFB
:10325000BCBF184670474FEA410C1CF5001F02D254
:10326000084600F0C4BB70B500F05CF900000089AE
:10327000FFF7F6BF4FF00040A0F580007047000058
:1032800010B591EA030F48BF83F0004300F1A68117
:10329000841A71EB030C05D2121943EB0C03001BCB
:1032A00061EB0C01DFF824E14FEA1154A4EB135C4D
:1032B0001EEA430F18BF9EEA445F73D023EA0E0351
:1032C000DCF1200E21EA045143F4801332D322FAB8
:1032D0000CFE10EB0E0023FA0CFE41EB0E01CCF1BC
:1032E000200E03FA0EFE10EB0E0051F10001B1F5B5
:1032F000801FCCF1200E32D201EB045112FA0EF2F3
:10330000BDE8104058BF7047401C38BF5FEA42021A
:1033100018BF7047002814BF20F0010041F10001E0
:103320004FEA410313F5001F38BF7047A1F1C041B8
:1033300000F046B9012A43EB0302ACF1200CDCF1AA
:103340001F0E32BF4FF0000E23FA0CF310EB0300F8
:1033500041EB0451B4EB115FD0D0A1EB045101F566
:10336000801149085FEA300001EB04510ED350F19F
:10337000000038BF12FA0EFE08D1BDE81040C9E7C0
:10338000401C38BF5FEA4202CAD1C3E7BDE8104023
:103390004FEA410313F5001F38BF7047A1F1C04148
:1033A00000F00EB99EEA445F08D011EA5E0FBDE856
:1033B000104004BF01F0004100207047BDE81040FC
:1033C00070B500F0AFF800BF64FBBE3E0000E0FF48
:1033D000DFF848C170B51CEA111E1EBF1CEA1315A8
:1033E0009EEA0C0F95EA0C0F00F06F8081EA03044F
:1033F00023EA4C134EEAD47E21EA4C1141F48011A9
:1034000043F48013AE44A1FB024CA0FB0365AEF174
:103410007F7E361955EB0C05A1FB034C4CF10003E4
:10342000A0FB021C16EB0C06654153F10003094298
:1034300018BF46F0010613F4007F0BD14FEA0331A9
:103440004FEA0530340341EA155140EA16506FF057
:1034500003020AE04FEAC3214FEAC520F40241EA21
:10346000555140EA56506FF0020202EB2E4201EB3A
:10347000025585EACE710AD05FEA440C18BF24F0E9
:10348000004450F1000041F1000120EAD47040F204
:10349000FE7C624500D270BDA84214BF4FF080444C
:1034A0004FF04044002E08BF0024BEF1806FA8BF3B
:1034B000A1F1C041BDE8704080F282804FF0000071
:1034C00001F1C04101F0004170479EEA0C0F0CEA87
:1034D000131518BF95EA0C0F06D04FF0000081EAD3
:1034E000030E0EF0004170BD00F01CF88900013E93
:1034F00000F007B800F009B84FEA430C5FEA5C5CE3
:1035000008D081EA030100F05BB84FEA410C5FEAA2
:103510005C5CF6D14FF00000014970470000FF07E6
:103520000000F87F0EF1020E2EF0030E5EF8046B21
:10353000364205D4012A43EB030515F5001F12D8C6
:10354000012841EB010C1CF5001F0CD80ED14FEAED
:10355000D17C15F5001F0CEB4C0C0CF1020C08BFD4
:103560004CEBD37C04E04FF0080C01E04FEAD37C35
:103570000CEB4C0526FA05F606F00706B6F1040C2E
:1035800006D20EEB860CBDE870404CF0010C604793
:10359000DFE80CF0090B02024FF000414FF0000091
:1035A000A1F5002170BD19461046012851EB010418
:1035B00018BFD4F5001484BF002001F0004170BD95
:1035C0000808A0F500114FEA3101704710B591EAE3
:1035D000030F48BF83F000433FF55AAE841A71EBE6
:1035E000030C07D212198CF0004C43EB0C03001BA8
:1035F00061EB0C01DFF8A4E14FEA1154A4EB135C7A
:103600001EEA430F18BF9EEA445F00F0B08023EA31
:103610006E03524221EA0451C3EB6E0338BF5B1EB6
:10362000DCF1200E25D322FA0CFE10EB0E0043FA3B
:103630000CFE41EB0E01CCF1200E03FA0EFE10EB56
:103640000E0051F10001CCF1200E29D412FA0EF235
:1036500001EB0451BDE8104058BF7047401C1CBF2F
:10366000B2F1004F704700280CBF491C20F0010048
:10367000704712EB020E43EB030218BF4FF0010E2E
:103680004EEA4202ACF1200CDCF11E0E54D943FA92
:103690000CFE10EB0E0051F1FF31CCF11E0ED5D512
:1036A0000EF1010E12FA0EFE404141EB010101EB59
:1036B000445C5FEA5C5C10D910EBDE7001EB0451F6
:1036C00038BFBEF1004FBDE8104018BF704700285A
:1036D0000CBF491C20F00100704730D24FEAD42CB7
:1036E00011F5001124F400641BD0B1FA81F20B3AF9
:1036F000A41AA41ED2F12003914030FA03F3194317
:10370000904001EBCC71002C01EB0451BDE810405E
:10371000A8BF704701F1C0414FF0000001F0004127
:103720007047B0FA80F310FA03F100D110BDE41A2B
:10373000173C4805C90AE4E701EB045110BD4910E4
:1037400001EB0451BDE810404FEA300002E04FF0B9
:10375000000170474A0008BF0042F8D0B2F5001FD0
:1037600028BF704701F000414FF0000070479EEA0B
:10377000445F07D011EA5E0FBDE8104004BF00218E
:1037800000207047BDE8104070B5FFF7CBFE00BFCA
:1037900040DFF63E83F00041104670470000E0FF36
:1037A00043004FEAD30C4FEA3C0C43401FBF400795
:1037B0000CF1605113F0FE4F70471CF0006F03D105
:1037C00000200CF0004170470CF0004343EA5070B9
:1037D00010B540EACC0000F0C4F800BF0000009231
:1037E0004FEA0001FFF7ECBE4FF000414FF0000040
:1037F000A1F5002170470000C10DD1F19E0206DB4A
:103800004FEA002343F0004323FA02F070470042DE
:1038100007D54FEA4001B1F1FE4F02D24FF0000050
:10382000704710B500F09DF8499224800020704741
:103830006FEA200070470000B0FA80F310FA03F23C
:10384000C3F19D030AD0D90501EB1220530638BFFE
:10385000704700F1010008BF20F001007047000030
:103860004FF47F0C1CEAD0121EBF1CEAD11392EA5F
:103870000C0F93EA0C0F00F0478090EA010F48BF4D
:1038800042F480724FF0004C4CEA00204CEA0121D7
:1038900002EB0302A0FB0113A2F50002002918BFEE
:1038A00043F001035B0028BF4FEA330342EB22429F
:1038B0005FEA132C4CEBC2502EBFBCEB436FB2F54A
:1038C0007C0F70474FEA036CBCF1004F08BF20F03B
:1038D0000100B2F57C0F38BF70470BD582F0FF02B4
:1038E00012F5803FC8BF704700F1C040D8BF00F05C
:1038F0000040704700F5000C5FEA4C0C48BF704771
:10390000B0F1C04000F073B890EA010F0CEAD11397
:1039100048BF42F48072624538BF634504D280EAF2
:10392000010000F00040704710B500F01AF800BF29
:103930008900013E00F007B800F009B85FEA410CC9
:103940005FEA1C6C08D080EA010000F050B85FEA22
:10395000400C5FEA1C6CF6D14FF00040A0F58000EF
:1039600070470EF1020E2EF0030E5EF8044B244257
:1039700004D44FEA4102B2F17F4F11D84FEA40031D
:10398000B3F17F4F0CD80ED14FEAD07CB2F17F4F0C
:103990000CEB4C0C0CF1020C08BF4CEBD17C04E09E
:1039A0004FF0080C01E04FEAD17C0CEB4C0324FAF9
:1039B00003F404F00704B4F1040C06D20EEB840CFB
:1039C000BDE810404CF0010C6047DFE80CF0070840
:1039D00002024FF00040A0F5800010BD08464200F2
:1039E00018BFD2F1807288BF00F0004010BDFF21E7
:1039F00041EAD050C0057047FEF753BD00000000FB
:103A000000000000000000000000000000000008AE
:103A100008080808080800001818000000486C246E
:103A20001200000000000000000000000000002460
:103A300024247F1212127F12121200000000081CB0
:103A40002A2A0A0C1828282A2A1C08080000002202
:103A5000251515152A585454542200000000000C56
:103A60001212120A76252911916E00000006060432
:103A700003000000000000000000000000402010D3
:103A80001008080808080810102040000002040868
:103A900008101010101010080804020000000000A8
:103AA00008086B1C1C6B08080000000000000000E8
:103AB000080808087F080808080000000000000047
:103AC00000000000000000000606040300000000E3
:103AD00000000000FE0000000000000000000000E8
:103AE000000000000000000006060000000080400A
:103AF00040202010100808040402020000000018F2
:103B0000244242424242424224180000000000087F
:103B10000E08080808080808083E00000000003CDD
:103B20004242422020100804427E00000000003C77
:103B30004242201820404042221C00000000002089
:103B40003028242422227E20207800000000007EDD
:103B50000202021A26404042221C000000000038E7
:103B60002402021A26424242241800000000007E6D
:103B70002222101008080808080800000000003C75
:103B80004242422418244242423C000000000018F5
:103B90002442424264584040241C000000000000BF
:103BA00000001818000000001818000000000000B5
:103BB00000000008000000000008080400000040A9
:103BC000201008040204081020400000000000003B
:103BD00000007F0000007F000000000000000002E5
:103BE0000408102040201008040200000000003CDF
:103BF0004242464020101000181800000000001C2F
:103C0000225A555555552D42221C0000000000082F
:103C100008181414243C224242E700000000001F50
:103C20002222221E22424242221F00000000007C6B
:103C30004242010101010142221C00000000001F5C
:103C40002242424242424242221F00000000003F04
:103C50004212121E12120242423F00000000003FB8
:103C60004212121E12120202020700000000003C63
:103C70002222010101712122221C0000000000E724
:103C8000424242427E42424242E700000000003E81
:103C90000808080808080808083E00000000007C22
:103CA00010101010101010101010110F00000077DD
:103CB00022120A0E0A1212222277000000000007C8
:103CC0000202020202020202427F000000000077AC
:103CD000363636362A2A2A2A2A6B0000000000E3EC
:103CE00046464A4A52525262624700000000001C97
:103CF0002241414141414141221C00000000003F5E
:103D0000424242423E020202020700000000001C42
:103D10002241414141414D53321C60000000003FAF
:103D20004242423E1212222242C700000000007CA2
:103D30004242020418204042423E00000000007F40
:103D40004908080808080808081C0000000000E7E7
:103D50004242424242424242423C0000000000E7EE
:103D60004242222424141418080800000000006BAA
:103D7000494949495555362222220000000000E7F2
:103D8000422424181818242442E700000000007779
:103D90002222141408080808081C00000000007EF5
:103DA0002120101008040442423F00000078080857
:103DB0000808080808080808080878000000020237
:103DC000040408080810102020204040001E101095
:103DD000101010101010101010101E0000384400A9
:103DE00000000000000000000000000000000000D3
:103DF0000000000000000000000000FF00060800B6
:103E000000000000000000000000000000000000B2
:103E10000000003C4278444242FC000000000003E5
:103E20000202021A26424242261A00000000000046
:103E30000000003844020202443800000000006024
:103E4000404040784442424264D8000000000000F4
:103E50000000003C427E0202423C0000000000F0F4
:103E60008808087E08080808083E000000000000D6
:103E70000000007C22221C023C42423C0000000365
:103E80000202023A4642424242E700000000000CB1
:103E90000C00000E08080808083E00000000003072
:103EA00030000038202020202020221E00000003A7
:103EB00002020272120A1612227700000000000E9F
:103EC0000808080808080808083E0000000000006C
:103ED0000000007F9292929292B7000000000000D2
:103EE0000000003B4642424242E700000000000062
:103EF0000000003C42424242423C00000000000000
:103F00000000001B26424242221E02070000000061
:103F10000000007844424242447840E00000000043
:103F2000000000774C040404041F0000000000009F
:103F30000000007C42023C40423E000000000000C5
:103F40000008083E080808080830000000000000CB
:103F5000000000634242424262DC000000000000B8
:103F6000000000E7422424140808000000000000BC
:103F7000000000EB494955552222000000000000D6
:103F80000000007624181818246E000000000000BD
:103F9000000000E74224241418080807000000006D
:103FA0000000007E22100808447E000000C020208F
:103FB00020202010202020202020C00010101010D1
:103FC000101010101010101010101010000608081B
:103FD0000808081008080808080806000C32C20083
:103FE00000000000000000000000000000000000D1
:103FF00000000000000000000000000000000000C1
:1040000000000000000000000000000000000000B0
:1040100000000000000000000000000000000000A0
:10D9D0000000000000000000000000000000D476FD
:10D9E0000000000000000000000000000000000037
:10D9F0000000000000000000000000000000000027
:10DA00000000000000000000000000000000000016
:10DA10000000000000000000000000000000000006
:10DA200000000000000000000000000000000000F6
:10DA300000000000000000000000000000000000E6
:10DA400000000000000000000000000000000000D6
:10DA500000000000000000000000000000000000C6
:10DA600000000000000000000000000000000000B6
:10DA700000000000000000000000000000000000A6
:10DA80000000000000000000768FFFFFFFFFFFFF97
:10DA9000FFFF07FF57FFFFFF00000000000000002E
:10DAA0000000000000000000000000000000000076
:10DAB0000000000000000000000000000000000066
:10DAC0000000000000000000000000000000000056
:10DAD0000000000000000000000000000000000046
:10DAE0000000000000000000000000000000000036
:10DAF00007E007E007E007E007E007E007E007E0EE
:10DB000007E007E007E007E007E007E007E007E0DD
:10DB100007E007E007E007E007E007E007E007E0CD
:10DB200007E007E007E007E007E007E007E007E0BD
:10DB300007E007E007E007E007E007E007E007E0AD
:10DB400007E007E007E007E007E007E007E007E09D
:10DB500000000000000000000000000000000000C5
:10DB600000000000000000000000000000000000B5
:10DB700000000000000000000000000000000000A5
:10DB80000000000000000000000000000000000095
:10DB90000000000000000000000000000000000085
:10DBA0000000000000000000000000000000000075
:10DBB000000000000000000000000000FFFFFFFF69
:10DBC000FFFFFFFF20000000000000000000000039
:10DBD0000000000000000000000000000000000045
:10DBE0000000000000000000000000000000000035
:10DBF0000000000000000000000000000000000025
:10DC00000000000000000000000000000000000014
:10DC10000000000000000000000000000000000004
:10DC200000000000000000000000000000000000F4
:10DC300000000000000000000000000000000000E4
:10DC400000000000000000000000000000000000D4
:10DC500000000000000000000000000000000000C4
:10DC600000000000FFFFFFFFFFFFFFFFFFFFFFFFC0
:10DC7000FFFF05BF063FFFFFFFFFFFFFFFFF0000A5
:10DC80000000000000000000000000000000000094
:10DC90000000000000000000000000000000000084
:10DCA0000000000000000000000000000000000074
:10DCB0000000000000000000000000000000000064
:10DCC0000000000000000000000000000000000054
:10DCD00007E007E007E007E007E007E007E007E00C
:10DCE00007E007E007E007E007E007E007E007E0FC
:10DCF00007E007E007E007E007E007E007E007E0EC
:10DD000007E007E007E007E007E007E007E007E0DB
:10DD100007E007E007E007E007E007E007E007E0CB
:10DD200007E007E007E007E007E007E007E007E0BB
:10DD300000000000000000000000000000000000E3
:10DD400000000000000000000000000000000000D3
:10DD500000000000000000000000000000000000C3
:10DD600000000000000000000000000000000000B3
:10DD700000000000000000000000000000000000A3
:10DD80000000000000000000000000000000000093
:10DD90000000000000000000000000003800073F05
:10DDA0000000FB80FFFFFFFFFFFF200000000000DE
:10DDB0000000000000000000000000000000000063
:10DDC0000000000000000000000000000000000053
:10DDD0000000000000000000000000000000000043
:10DDE0000000000000000000000000000000000033
:10DDF0000000000000000000000000000000000023
:10DE00000000000000000000000000000000000012
:10DE10000000000000000000000000000000000002
:10DE200000000000000000000000000000000000F2
:10DE300000000000000000000000000000000000E2
:10DE4000FFFFFFFFFFFF025F0010F7FFAFFF03FDC3
:10DE5000007303DB03FC0074F7FF67FFFFFFFFFFA6
:10DE60007EFF000000000000000000000000000035
:10DE700000000000000000000000000000000000A2
:10DE80000000000000000000000000000000000092
:10DE90000000000000000000000000000000000082
:10DEA0000000000000000000000000000000000072
:10DEB00007E007E007E007E007E007E007E007E02A
:10DEC00007E007E007E007E007E007E007E007E01A
:10DED00007E007E007E007E007E007E007E007E00A
:10DEE00007E007E007E007E007E007E007E007E0FA
:10DEF00007E007E007E007E007E007E007E007E0EA
:10DF000007E007E007E007E007E007E007E007E0D9
:10DF10000000000000000000000000000000000001
:10DF200000000000000000000000000000000000F1
:10DF300000000000000000000000000000000000E1
:10DF400000000000000000000000000000000000D1
:10DF500000000000000000000000000000000000C1
:10DF600000000000000000000000000000000000B1
:10DF700000000000000000000000000078000FFF1B
:10DF800007FF07FF00020000FB00FFFFFFFFFFFF8E
:10DF90002800000000000000000000000000000059
:10DFA0000000000000000000000000000000000071
:10DFB0000000000000000000000000000000000061
:10DFC0000000000000000000000000000000000051
:10DFD0000000000000000000000000000000000041
:10DFE0000000000000000000000000000000000031
:10DFF0000000000000000000000000000000000021
:10E000000000000000000000000000000000000010
:10E010000000000000000000000000007F1FFFFF64
:10E02000FFFFFFFFFFFFFFFF9FFFFFFFFFFF155FEA
:10E0300000B303FB03FB01B2BFFFFFFFBFFFFFFF06
:10E04000FFFFFFFF000000000000000000000000D4
:10E0500000000000000000000000000000000000C0
:10E0600000000000000000000000000000000000B0
:10E0700000000000000000000000000000000000A0
:10E080000000000000000000000000000000000090
:10E0900007E007E007E007E007E007E007E007E048
:10E0A00007E007E007E007E007E007E007E007E038
:10E0B00007E007E007E007E007E007E007E007E028
:10E0C00007E007E007E007E007E007E007E007E018
:10E0D00007E007E007E007E007E007E007E007E008
:10E0E00007E007E007E007E007E007E007E007E0F8
:10E0F0000000000000000000000000000000000020
:10E10000000000000000000000000000000000000F
:10E1100000000000000000000000000000000000FF
:10E1200000000000000000000000000000000000EF
:10E1300000000000000000000000000000000000DF
:10E1400000000000000000000000000000000000CF
:10E15000000000000000000000000000980057FFD1
:10E1600017FF07FF07FF07FF07FF00020000FB0084
:10E17000FFFFFFFFFFFF284000000000000000003D
:10E18000000000000000000000000000000000008F
:10E19000000000000000000000000000000000007F
:10E1A000000000000000000000000000000000006F
:10E1B000000000000000000000000000000000005F
:10E1C000000000000000000000000000000000004F
:10E1D000000000000000000000000000000000003F
:10E1E000000000000000000000000000000000002F
:10E1F00000000000000000000000DFFFFFFFFFFF45
:10E20000FFFFFFFF4EFFFFFFFFFFFFFFFFFFFFFFCF
:10E21000001203DB04BD0378000FFFFF15DFFFFFD3
:10E22000FFFFFFFFFFFF00000000000000000000F4
:10E2300000000000000000000000000000000000DE
:10E2400000000000000000000000000000000000CE
:10E2500000000000000000000000000000000000BE
:10E2600000000000000000000000000000000000AE
:10E2700007E007E007E007E007E007E007E007E066
:10E2800007E007E007E007E007E007E007E007E056
:10E2900007E007E007E007E007E007E007E007E046
:10E2A00007E007E007E007E007E007E007E007E036
:10E2B00007E007E007E007E007E007E007E007E026
:10E2C00007E007E007E007E007E007E007E007E016
:10E2D000000000000000000000000000000000003E
:10E2E000000000000000000000000000000000002E
:10E2F000000000000000000000000000000000001E
:10E30000000000000000000000000000000000000D
:10E3100000000000000000000000000000000000FD
:10E3200000000000000000000000000000000000ED
:10E33000000000000000000000000000900077FFD7
:10E340003FFF3FFF37FF1FFF07FF07FF07FF07FFE5
:10E3500000010000FB60FFFFFFFFFFFF38400000EF
:10E3600000000000000000000000000000000000AD
:10E37000000000000000000000000000000000009D
:10E38000000000000000000000000000000000008D
:10E39000000000000000000000000000000000007D
:10E3A000000000000000000000000000000000006D
:10E3B000000000000000000000000000000000005D
:10E3C000000000000000000000000000000000004D
:10E3D0000000000000000000EFFFFFFFFFFFFFFF55
:10E3E000FFFFCFFF000AFFFFFFFFFFFFFFFFFFFF61
:10E3F000003203FD051E049D0317004F00000417A3
:10E40000FFFF02B79FFF027E000000000000000037
:10E4100000000000000000000000000000000000FC
:10E4200000000000000000000000000000000000EC
:10E4300000000000000000000000000000000000DC
:10E4400000000000000000000000000000000000CC
:10E4500007E007E007E007E007E007E007E007E084
:10E4600007E007E007E007E007E007E007E007E074
:10E4700007E007E007E007E007E007E007E007E064
:10E4800007E007E007E007E007E007E007E007E054
:10E4900007E007E007E007E007E007E007E007E044
:10E4A00007E007E007E007E007E007E007E007E034
:10E4B000000000000000000000000000000000005C
:10E4C000000000000000000000000000000000004C
:10E4D000000000000000000000000000000000003C
:10E4E000000000000000000000000000000000002C
:10E4F000000000000000000000000000000000001C
:10E50000000000000000000000000000000000000B
:10E5100000000000000000000000000098007FFFE5
:10E5200057FF57FF4FFF37FF2FFF1FFF0FFF07FF5B
:10E5300007FF07FF07FF00000000FB60FFFFFFFF72
:10E54000FFFF384000000000000000000000000055
:10E5500000000000000000000000000000000000BB
:10E5600000000000000000000000000000000000AB
:10E57000000000000000000000000000000000009B
:10E58000000000000000000000000000000000008B
:10E59000000000000000000000000000000000007B
:10E5A000000000000000000000000000000000006B
:10E5B0000000000000000000FFFFFFFFFFFFFFFF63
:10E5C000FFFFFFFFFFFFFFFFFFFFFFFF000DFFFF4C
:10E5D0005F7F045E0D7F0D5F047B0338000AFFFF41
:10E5E000FFFF000B051E0004FFFF000000000000FD
:10E5F000000000000000000000000000000000001B
:10E60000000000000000000000000000000000000A
:10E6100000000000000000000000000000000000FA
:10E6200000000000000000000000000000000000EA
:10E6300007E007E007E007E007E007E007E007E0A2
:10E6400007E007E007E007E007E007E007E007E092
:10E6500007E007E007E007E007E007E007E007E082
:10E6600007E007E007E007E007E007E007E007E072
:10E6700007E007E007E007E007E007E007E007E062
:10E6800007E007E007E007E007E007E007E007E052
:10E69000000000000000000000000000000000007A
:10E6A000000000000000000000000000000000006A
:10E6B000000000000000000000000000000000005A
:10E6C000000000000000000000000000000000004A
:10E6D000000000000000000000000000000000003A
:10E6E000000000000000000000000000000000002A
:10E6F000000000000000000000000000880087FF0C
:10E700004FFF57FF4FFF37FF3FFF37FF27FF27FF21
:10E710000FFF07FF07FF07FF07FF07FF00000000CD
:10E72000FB60FFFFFFFFFFFF4080000000000000D4
:10E7300000000000000000000000000000000000D9
:10E7400000000000000000000000000000000000C9
:10E7500000000000000000000000000000000000B9
:10E7600000000000000000000000000000000000A9
:10E770000000000000000000000000000000000099
:10E780000000000000000000000000000000000089
:10E79000000000000000FFFFFFFFFFFFFFFFFFFF83
:10E7A000FFFFFFFFFFFFFFFF00D6FFFF02BC029A43
:10E7B000041D055F1D9F155F055F041B01D2000747
:10E7C000FFFF4E3FFFFFFFFFFFFF25380000000067
:10E7D0000000000000000000000000000000000039
:10E7E0000000000000000000000000000000000029
:10E7F0000000000000000000000000000000000019
:10E800000000000000000000000000000000000008
:10E8100007E007E007E007E007E007E007E007E0C0
:10E8200007E007E007E007E007E007E007E007E0B0
:10E8300007E007E007E007E007E007E007E007E0A0
:10E8400007E007E007E007E007E007E007E007E090
:10E8500007E007E007E007E007E007E007E007E080
:10E8600007E007E007E007E007E007E007E007E070
:10E870000000000000000000000000000000000098
:10E880000000000000000000000000000000000088
:10E890000000000000000000000000000000000078
:10E8A0000000000000000000000000000000000068
:10E8B0000000000000000000000000000000000058
:10E8C0000000000000000000000000000000000048
:10E8D000000000000000000000000000880087FF2A
:10E8E0004FFF4FFF37FF37FF37FF37FF2FFF27FF60
:10E8F0001FBF1FFF17FF07FF07FF07FF07FF07FFE8
:10E9000007FF00000000FB80FFFFFFFFFFFF4880C4
:10E9100000000000000000000000000000000000F7
:10E9200000000000000000000000000000000000E7
:10E9300000000000000000000000000000000000D7
:10E9400000000000000000000000000000000000C7
:10E9500000000000000000000000000000000000B7
:10E9600000000000000000000000000000000000A7
:10E9700000000000FFFFFFFFFFFFFFFFFFFFFFFFA3
:10E98000FFFFFFFF0077019A02DD03BE04BF055FB2
:10E990000D9F1DDF1D9F1DBF151F04FD0398004C1B
:10E9A0000000FFFFFFFFFFFFFFFFFFFF0000000071
:10E9B0000000000000000000000000000000000057
:10E9C0000000000000000000000000000000000047
:10E9D0000000000000000000000000000000000037
:10E9E0000000000000000000000000000000000027
:10E9F00007E007E007E007E007E007E007E007E0DF
:10EA000007E007E007E007E007E007E007E007E0CE
:10EA100007E007E007E007E007E007E007E007E0BE
:10EA200007E007E007E007E007E007E007E007E0AE
:10EA300007E007E007E007E007E007E007E007E09E
:10EA400007E007E007E007E007E007E007E007E08E
:10EA500000000000000000000000000000000000B6
:10EA600000000000000000000000000000000000A6
:10EA70000000000000000000000000000000000096
:10EA80000000000000000000000000000000000086
:10EA90000000000000000000000000000000000076
:10EAA0000000000000000000000000000000000066
:10EAB00000000000000000000000000088007FFF50
:10EAC00047FF3FFF3FFF3FFF37FF2FFF2FFF27FF8E
:10EAD00027FF27FF1FBF0FFF07FF0FFF07FF07FFDE
:10EAE00007FF07FF07FF079F00000000FBC0FFFFB5
:10EAF000FFFFFFFF50A0000000000000000000002A
:10EB00000000000000000000000000000000000005
:10EB100000000000000000000000000000000000F5
:10EB200000000000000000000000000000000000E5
:10EB300000000000000000000000000000000000D5
:10EB400000000000000000000000000000000000C5
:10EB500000000000FFFFFFFF043F01DFFFFFFFFF9A
:10EB60001E7F023C035F055F061F163F1E5F2E5F80
:10EB7000265F1E3F25FF257F15BF053F047A021340
:10EB80000000FFFFFFFFFFFFFFFFFFFF033000005C
:10EB90000000000000000000000000000000000075
:10EBA0000000000000000000000000000000000065
:10EBB0000000000000000000000000000000000055
:10EBC0000000000000000000000000000000000045
:10EBD00007E007E007E007E007E007E007E007E0FD
:10EBE00007E007E007E007E00720062005A005A0F2
:10EBF00005A005A005A005A005A005A005A005A0ED
:10EC000005A005A005A005A005A005A005A005A0DC
:10EC100005A005A00620072007E007E007E007E0C1
:10EC200007E007E007E007E007E007E007E007E0AC
:10EC300000000000000000000000000000000000D4
:10EC400000000000000000000000000000000000C4
:10EC500000000000000000000000000000000000B4
:10EC600000000000000000000000000000000000A4
:10EC70000000000000000000000000000000000094
:10EC80000000000000000000000000000000000084
:10EC900000000000000000000000000080007FFF76
:10ECA0004FFF37FF37FF37FF3FFF2FFF2FFF2FFFAC
:10ECB00027FF1FBF27BF17BF179F0F9F0FBF07BF9C
:10ECC00007FF07FF07FF07FF07FF07FF075F0000BA
:10ECD0000000FB80FFFFFFFFFFFF000000000000BF
:10ECE0000000000000000000000000000000000024
:10ECF0000000000000000000000000000000000014
:10ED00000000000000000000000000000000000003
:10ED100000000000000000000000000000000000F3
:10ED2000FFFFFFFF000000000000000000000000E7
:10ED300000000000FFFFE7FF011E013D471FFFFF2E
:10ED400001FC043F05DF1E9F2E9F2E9F2EBF2E5FCE
:10ED50002E3F2E1F2E1F25DF157F059F04BC02F6B8
:10ED60000001BFFFFFFFFFFFFFFFFFFFFFFF0000EE
:10ED70000000000000000000000000000000000093
:10ED80000000000000000000000000000000000083
:10ED90000000000000000000000000000000000073
:10EDA0000000000000000000000000000000000063
:10EDB00007E007E007E007E007E007E007E007E01B
:10EDC00007E007E007E006E0FFFFFFFFFFFFFFFFB0
:10EDD000FFFFFFFFFFFFFFFFFFFFFFFFFFFFFFFF43
:10EDE000FFFFFFFFFFFFFFFFFFFFFFFFFFFFFFFF33
:10EDF000FFFFFFFFFFFFFFFF072007E007E007E03F
:10EE000007E007E007E007E007E007E007E007E0CA
:10EE100000000000000000000000000000000000F2
:10EE200000000000000000000000000000000000E2
:10EE300000000000000000000000000000000000D2
:10EE400000000000000000000000000000000000C2
:10EE500000000000000000000000000000000000B2
:10EE600000000000000000000000000000000000A2
:10EE700000000000000000000000000088007FFF8C
:10EE80003FFF37FF3FFF37FF3FFF37FF2FFF2FFFCA
:10EE900027FF1FBF1FBF17FF17BF179F179F0F9F8A
:10EEA000075F075F0FFF0FFF07FF07FF07FF07FF62
:10EEB00007FF063F00000000FFFF00000000000009
:10EEC0000000000000000000000000000000000042
:10EED0000000000000000000000000000000000032
:10EEE0000000000000000000000000000000000022
:10EEF0000000000000000000000000000000000012
:10EF0000FE94FFFFFFFFFFFFFFFF00000000000077
:10EF10000000051FFFFF87FF049F02FF057F061FFC
:10EF200003FF05BF267F2EFF36DF2EDF36BF2EBF45
:10EF3000269F2E1F261F1DFF1DBF0D9F04BC02B55F
:10EF40000000FFFFFFFFFFFFFFFFFFFFFFFF0000CD
:10EF500000000000000000000000000000000000B1
:10EF600000000000000000000000000000000000A1
:10EF70000000000000000000000000000000000091
:10EF80000000000000000000000000000000000081
:10EF900007E007E007E007E007E007E007E007E039
:10EFA00007E007E007E00620FFFFFFFFFFFFFFFF8E
:10EFB000FFFFFFFFFFFFFFFFFFFFFFFFFFFFFFFF61
:10EFC000FFFFFFFFFFFFFFFFFFFFFFFFFFFFFFFF51
:10EFD000FFFFFFFFFFFFFFFF066007E007E007E01E
:10EFE00007E007E007E007E007E007E007E007E0E9
:10EFF0000000000000000000000000000000000011
:10F000000000000000000000000000000000000000
:10F0100000000000000000000000000000000000F0
:10F0200000000000000000000000000000000000E0
:10F0300000000000000000000000000000000000D0
:10F0400000000000000000000000000000000000C0
:10F05000000000000000000000000000800077FFBA
:10F0600037FF3FFF2FFF2FFF2FFF37FF2FFF2FFF10
:10F0700027FF2FBF1FBF17BF0FBF1F9F0F9F0FBFC0
:10F080001FBF1FFF2FFF06FF067F069F075F07FFBB
:10F0900007FF07FF07FF0000FFFF00000000000060
:10F0A0000000000000000000000000000000000060
:10F0B0000000000000000000000000000000000050
:10F0C0000000000000000000000000000000000040
:10F0D0000000000000000000000000000000000030
:10F0E0005E1F07FF03BF3800FE47FFFFFFFFFFFF64
:10F0F000000007FF7FFFFFFFFFFF03FFFFFFEFFFA2
:10F1000003DF05BF1E7F2EFF36DF2EDF2EDF36BF6B
:10F11000269F2E5F261F25BF259F157F04BC02F565
:10F120000002FFFFFFFFFFFFFFFFFFFFFFFF0002E7
:10F1300000000000000000000000000000000000CF
:10F1400000000000000000000000000000000000BF
:10F1500000000000000000000000000000000000AF
:10F16000000000000000000000000000000000009F
:10F1700007E007E007E007E007E007E007E007E057
:10F1800007E007E007E00620FFFFFFFFFFFFFFFFAC
:10F19000FFFFFFFFFFFFFFFFFFFFFFFFFFFFFFFF7F
:10F1A000FFFFFFFFFFFFFFFFFFFFFFFFFFFFFFFF6F
:10F1B000FFFFFFFFFFFFFFFF066007E007E007E03C
:10F1C00007E007E007E007E007E007E007E007E007
:10F1D000000000000000000000000000000000002F
:10F1E000000000000000000000000000000000001F
:10F1F000000000000000000000000000000000000F
:10F2000000000000000000000000000000000000FE
:10F2100000000000000000000000000000000000EE
:10F2200000000000000000000000000000000000DE
:10F2300000000000000000000000000088007FFFC8
:10F240003FFF2FFF37FF37FF2FFF2FFF2FFF27FF36
:10F2500027FF2FBF27FF1FBF17BF1FFF27FF2FFF4E
:10F2600047FF079F061F067F069F069F06DF073F93
:10F27000075F07FF07FF2800FFFF000000000000F6
:10F28000000000000000000000000000000000007E
:10F29000000000000000000000000000000000006E
:10F2A000000000000000000000000000000000005E
:10F2B000000000000000000000000000000000004E
:10F2C000D57017FF07FF07FF07FF01F63800FCA006
:10F2D000FFFFFFFFFFFFFFFFFFFF015F063FFFFF95
:10F2E000021E043F05BF1EBF2EDF2EDF2EDF36BFFE
:10F2F000267F2E5F261F1DFF259F0D9F04BC033612
:10F300000007CFFFFFFFFFFFFFFFFFFFFFFF2E1BE9
:10F3100000000000000000000000000000000000ED
:10F3200000000000000000000000000000000000DD
:10F3300000000000000000000000000000000000CD
:10F3400000000000000000000000000000000000BD
:10F3500007E007E007E007E007E007E007E007E075
:10F3600007E007E007E005E0FFFFFFFFFFFFFFFF0B
:10F37000DFFB07E0FFFFFFFFFFFFFFFFFFFF2FE5C2
:10F380004FE9FFFFFFFFFFFFFFFFFFFF07E0FFFF6A
:10F39000FFFFFFFFFFFFFFFF062007E007E007E09A
:10F3A00007E007E007E007E007E007E007E007E025
:10F3B000000000000000000000000000000000004D
:10F3C000000000000000000000000000000000003D
:10F3D000000000000000000000000000000000002D
:10F3E000000000000000000000000000000000001D
:10F3F000000000000000000000000000000000000D
:10F4000000000000000000000000000000000000FC
:10F4100000000000000000000000000080007FFFEE
:10F420003FFF2FFF2FFF37FF37FF2FFF37FF2FFF44
:10F4300027BF2FBF27BF27FF2FFF37FF4FFF179F84
:10F44000063F061F069F06FF06FF06FF06FF06FF94
:10F4500006FF07FF07FF2800FFFF00000000000075
:10F46000000000000000000000000000000000009C
:10F47000000000000000000000000000000000008C
:10F48000000000000000000000000000000000007C
